:020000041000EA
:1000000000B5324B212058609868022188439860DF
:10001000D860186158612E4B002199600221596106
:100020000121F02299502B49196001219960352056
:1000300000F044F80222904214D00621196600F024
:1000400034F8196E01211966002018661A6600F04E
:100050002CF8196E196E196E052000F02FF8012189
:100060000842F9D1002199601B49196000215960AB
:100070001A491B48016001219960EB211966A021F2
:10008000196600F012F800219960164914480160C1
:100090000121996001BC002800D000471248134993
:1000A000086003C880F30888084703B5996A0420EC
:1000B0000142FBD001200142F8D103BD02B5186610
:1000C0001866FFF7F2FF186E186E02BD00000240BE
:1000D000000000180000070000035F00212200005C
:1000E000F4000018222000A00001001008ED00E03C
:1000F00000000000000000000000000074B24E7A12
:1001000000200420F7010010C3010010C5010010F9
:10011000C1010010C1010010C1010010C101001097
:10012000C1010010C1010010C1010010C701001081
:10013000C1010010C1010010C9010010CB01001065
:10014000CD010010CD010010CD010010CD01001037
:10015000CD010010CD010010CD010010CD01001027
:10016000CD010010CD010010CD010010CD01001017
:10017000CD010010CD010010CD010010CD01001007
:10018000CD010010CD010010CD010010CD010010F7
:10019000CD010010CD010010CD010010CD010010E7
:1001A000CD010010CD010010CD010010CD010010D7
:1001B000CD010010CD010010CD010010CD010010C7
:1001C00000BE00BE00BE00BE00BE00BEEFF3058054
:1001D000103800BEF2EB8871646E0510846E051055
:1001E0003402001090A31AE700201F49086006C8D7
:1001F00081F3088810471D48006800282FD10DA4FE
:100200000ECC002902D000F012F8F9E71849194A7B
:10021000002000E001C19142FCD1174988471749ED
:1002200088471749884700BEFDE701C901C29A42C5
:10023000FBD37047846E0510C0000020202D0020E5
:10024000E49A05100000042000000420E49A051040
:10025000001004200010042000000000704709482E
:100260000FF0D4FD0047000008ED00E0000000D0D2
:10027000202D0020245D032001E60010550300100E
:1002800035E700105756000006005250ABB36053DC
:1002900038CA041006005250861C030248CA0410D3
:1002A000060052505422A29D54CA04100500525018
:1002B000DE65F468E49A0510F8B5C0460448054BBD
:1002C00010B5834203D0044B002B00D0984710BDDB
:1002D000202D0020202D00200000000006480749A6
:1002E000091A8B10C90FC91810B5491003D0044B57
:1002F000002B00D0984710BD202D0020202D00207D
:100300000000000010B5074C2378002B09D1FFF73F
:10031000D5FF054B002B02D0044800E000BF0123AD
:10032000237010BD2832002000000000A0C404107B
:10033000054B10B5002B03D00449054800E000BF71
:10034000FFF7CCFF10BDC046000000002C3200209B
:10035000A0C4041070B519200CF086F9D0238022B7
:100360001B0692045A6211F0EFFD00F04BF807F003
:1003700095FE09F00DFE08F015FA02F0E1FB00F021
:100380003DF90BF059F900220524144B1A7007F0BF
:1003900083FA134D013C2100280011F0C9FDFA2019
:1003A00080000CF071FF002CF4D10A2011F020FC29
:1003B000012200210B480CF02FFC0B4813F074FFB6
:1003C00001220A4B0A4C1A702378012BFCD109F048
:1003D0009BFF2378012BFAD0F6E7C046065D032089
:1003E000A0C40410045C03204DA50010055D03208B
:1003F0000A5D032010B5024814F07EFA10BDC04615
:10040000543B0320092370B586B00593043304934D
:10041000023B0393013B0293023B324D324C01936A
:10042000324B22003249334800932B0006F0F2FE93
:10043000142006F0EBFEFA2080000CF025FF2E4E73
:1004400021003200280007F0FDF83378682B08D02F
:100450002A4C200011F018FCFA2080000CF014FF48
:10046000F7E773783D2BF3D101222100280007F034
:100470000DF9234E32002100280007F041F93378AE
:10048000002BF7D101222100280006F0BDFF012139
:10049000200006F09BFF0321200006F02DFF032122
:1004A000280007F057F81321200007F097F91221D0
:1004B000200007F0D1F90021200007F0AFF9032157
:1004C000200007F039F90221200007F051F95521E9
:1004D000200006F02FFF1821280006F0D5FF06B0F7
:1004E00070BDC0460C220320AC33002040420F00F8
:1004F0009C20002094200020B85C0320B4C4041089
:100500001F5D0320F0B5C646334C344D344E2200F7
:100510002900300000B507F0A7F86378DB439B079C
:1005200020D023781B0702D480BCB846F0BD2D4CE8
:1005300006220021200011F029FA2100300007F0E6
:1005400063F80023E05E06F0CDFE274D286002230D
:10055000E05E06F0C7FE68600423E05E06F0C2FEBF
:10056000A860E1E7214B062298461800002111F00F
:100570000DFA1F4F06220021380011F007FA4146FC
:10058000280007F023F83900280007F001F8434657
:100590000020185E06F092FE4346164D28600220A9
:1005A000185E06F08BFE434668600420185E06F075
:1005B00085FEA8600023F85E06F08AFE0E4D2860D6
:1005C0000223F85E06F084FE68600423F85E06F0FD
:1005D0007FFEA860A5E7C046F8510320AC33002099
:1005E0000C22032064410320D04603205441032001
:1005F0005C410320D03F0320F03F0320F0B5C64606
:1006000000B511F0A1FC244924480DF031FF03216D
:100610001A200BF0F9FF03211B200BF0F5FF00223D
:1006200001211A200CF008F8002201211B200CF0F7
:1006300003F81B480CF028FE1A4C1B4E23781B4D68
:10064000DB070ED41A4B01279846210030880BF0A7
:10065000E3FC4346287018680CF016FE23781F420E
:10066000F3D030880BF0B6FA0221287030880BF0F6
:1006700007FC1421287030880BF03AFB14212870F5
:1006800030880BF0A3FC287030880BF007FB287033
:1006900080BCB846F0BDC046801A0600B4210020D8
:1006A000B80B0000205D0320A42000200D5D032076
:1006B000A8200020F0B55746DE464E464546E0B538
:1006C0008BB008919246190005900993DA1703231D
:1006D0008C46134063449B109B009846002B00DC23
:1006E00090E05246159B00249B000193149B9B1A9B
:1006F000159A9B1A089A9B00029353681268190175
:1007000094460491069251469A00039252468D00F7
:100710000021013A92000792002289465900DE002A
:10072000CB189B009B461300424665440092019AF9
:1007300094469C44039B1A199F195346002B1EDDB7
:10074000069B059819196346804600989B00434410
:1007500080460094086818600098081A845804318C
:100760005C6084599C60C059D86010338D42F1D1CF
:1007700043460799009363468C4604339C44042106
:10078000029B5A4463448C461400049A3E00E144A0
:100790009446009A5E4465444A45C8DC1A00009BB2
:1007A0009846099B434526DD1499159C089B0D1B13
:1007B000514609CB6D1A00291DDD41469E004B4371
:1007C0009B00C01853469C00059B47469C46099BCE
:1007D000AB469846159B994600234A4491006144D4
:1007E000C558CD5004339C42FAD1524401375A4483
:1007F0008019B845F0D10BB0F0BCBB46B246A94653
:10080000A046F0BD0022CCE7F0B54746CE4680B505
:100810001F00002B1DDD002A1BDD9300C0180B6894
:10082000002498464B689100D200494252428C46BF
:1008300091469B00614645182900A2004244166873
:10084000D21840C18142FAD14A460134A81AA742BF
:10085000F0D1C0BCB946B046F0BDC046F0B5DE46EA
:1008600057464E4645460023E0B51360836887B07F
:100870009A46059200230268052693460093013BA1
:10088000039002910493052355469B1B98465D43B4
:100890005B46002B00D18DE14544AD005D442B68E3
:1008A0005C006B6864085F007F08391C381C10F01E
:1008B00008FE002800D0DFE0211C381C10F0FCFDF1
:1008C000002800D0DFE00027731C9A46022B53D982
:1008D000AB685B005B08191C181C994610F0F1FD11
:1008E000002800D046E14846211C10F0E5FD002814
:1008F00001D04C4602275346032B3DD0EB685B00EA
:100900005B08191C181C994610F0DBFD002800D06C
:1009100038E14846211C10F0CFFD002801D04C469C
:1009200003275346042B27D02B695B005B08191C57
:10093000181C994610F0C5FD002800D02AE1494650
:10094000201C10F0ABFD002801D04C460427534674
:10095000052B11D06D696D006D08291C281C10F045
:10096000B0FD002800D01DE1291C201C10F096FDD0
:10097000002801D005272C1C029B009A4744002127
:100980009F50201C10F082FD002800D17EE0049BC7
:10099000013300D1E3E006239B1B45460193039BF3
:1009A0009B689A465D4306239F1B53469B009946CE
:1009B000019B52461C005443009A7F199446A5009F
:1009C00065449C460023BF005F44B8461F00644452
:1009D000A4005D445C4443462868196810F027FD74
:1009E000011C206810F009FD2060012E2DD943461E
:1009F0002868596810F01BFD011C606810F0FDFCB0
:100A00006060022E21D043462968986810F00FFDDF
:100A1000011CA06810F0F1FCA060032E15D0434625
:100A20002968D86810F003FD011CE06810F0E5FCAF
:100A3000E060052E09D143462968186910F0F7FCDB
:100A4000011C206910F0D9FC206101374D444C4451
:100A5000BE42C0D1009B013E04330093019B052B95
:100A600000D010E71A00029B5A6107B0F0BCBB46E9
:100A7000B246A946A046F0BD211C201C10F021FD65
:100A8000002800D018E73C1C01271DE7474530D05F
:100A900059465C460098BB005B4409581D68039AA0
:100AA00092682550196001009200594489189B18DA
:100AB00008681C680C60186089189B1808681C6816
:100AC0000C60186089189B1808681C680C60186016
:100AD00089189B1808681C680C60186089189B1896
:100AE00018680A6808601A60059A13680193013350
:100AF00013604546039B5A469B685D439A4606230E
:100B00009B1B0193EC1843465B199B009F58A40064
:100B10005C442068391C10F076FC2060012E00D85F
:100B200041E76068391C10F06EFC6060022E00D155
:100B300039E7A068391C10F066FCA060032E00D1D4
:100B400031E7E068391C10F05EFCE060042E00D153
:100B500029E72069391C10F056FC206123E70623A1
:100B600045469B1B0193039B9B689A465D43434606
:100B7000049318E7211C201C10F0A3FC002800D1CE
:100B8000B7E6B0E6211C201C10F09BFC002800D129
:100B9000C5E6BEE6211C201C10F093FC002800D105
:100BA000D3E6CCE6211C201C10F08BFC002800D1E1
:100BB000E0E6D9E61B68FFDEF0B55746DE464E4656
:100BC0004546E0B599B01493249B8246259C26980F
:100BD0005D1C00D1229B651C00D1229C239DEE1739
:100BE00003253540239EB4466544AD10AF0007256C
:100BF000229E0E97AE4335000096149E002E00DC18
:100C000088E29B001693230110930301D3181793D6
:100C10006B1EDB0801330391D9015B010F93A30025
:100C20007C43201880001193131815930023D3469A
:100C3000139108930E9B002B00DCC2E10F9A039BDB
:100C4000944663441293179BD84601930023029362
:100C50000298434601000CCB089C5943A4466144CA
:100C6000890051180991411C594361448900511868
:100C70000A91811C59436144890051180B91C11C90
:100C80004B4363449B00D318019E0C93009B34009C
:100C9000002B00DC45E2039B0025994600234C46CF
:100CA000AA46AB46A946069504952F1C05950795BF
:100CB0000D9325683168281C10F0B9FB594610F0D7
:100CC0009FFB71688346281C10F0B1FB514610F061
:100CD00097FBB1688246281C10F0A9FB079910F019
:100CE0008FFBF1680790281C10F0A1FB059910F00C
:100CF00087FB059065683169281C10F098FB391C4A
:100D000010F07EFB7169071C281C10F090FB049901
:100D100010F076FBB1690490281C10F088FB06994E
:100D200010F06EFBF1690690281C10F080FB49461C
:100D300010F066FB8146A568316A281C10F077FB2D
:100D4000594610F05DFB716A8346281C10F06FFB5A
:100D5000514610F055FBB16A8246281C10F067FB23
:100D6000079910F04DFBF16A0790281C10F05FFB0B
:100D7000059910F045FB0590E568316B281C10F0D3
:100D800056FB391C10F03CFB716B071C281C10F043
:100D90004EFB049910F034FBB16B0490281C10F04A
:100DA00046FB069910F02CFBF16B0690281C10F006
:100DB0003EFB494610F024FB81462569316C281C16
:100DC00010F035FB594610F01BFB716C8346281C54
:100DD00010F02DFB514610F013FBB16C8246281C1D
:100DE00010F025FB079910F00BFBF16C0790281C05
:100DF00010F01DFB059910F003FB05906569316D3E
:100E0000281C10F014FB391C10F0FAFA716D071C45
:100E1000281C10F00CFB049910F0F2FAB16D04904C
:100E2000281C10F004FB069910F0EAFAF16D069008
:100E3000281C10F0FCFA494610F0E2FA8146A56938
:100E4000316E281C10F0F3FA594610F0D9FA716E81
:100E50008346281C10F0EBFA514610F0D1FAB16E1F
:100E60008246281C10F0E3FA079910F0C9FAF16ED7
:100E70000790281C10F0DBFA059910F0C1FA0590D4
:100E8000E569316F281C10F0D2FA391C10F0B8FA5D
:100E9000716F071C281C10F0CAFA049910F0B0FA00
:100EA000B16F0490281C10F0C2FA069910F0A8FA4D
:100EB000F16F0690281C10F0BAFA494610F0A0FA1B
:100EC0008146803620340D9B009A08330D939A4258
:100ED00000DDEEE6139B019C9C46051C5946381C20
:100EE000644410F08DFA5146071C049810F088FAFB
:100EF0000799061C069810F083FA05998146281C6C
:100F000010F07EFA129B051C9A46229A009B9A4288
:100F100030DDAB460493534620CB2168281C9A460B
:100F200010F085FA011C381C10F06AFA6168071C81
:100F3000281C10F07CFA011C301C10F061FAA1682A
:100F4000061C281C10F073FA011C484610F058FAD1
:100F5000E1688146281C10F06AFA011C584610F01E
:100F60004FFA8346049B229A0133103404939A4229
:100F7000D1D1051C311C0A9E306810F03EFA391C94
:100F8000099F041C386810F038FA291C0C9D386041
:100F90003460286810F031FA0B9E4946041C306812
:100FA00010F02BFA1099019A8C46029B6244019230
:100FB0000E9A0433306002932C609A4200DD47E6BB
:100FC000C3460F9A039B944663440E9A0293239B55
:100FD0009246159D934200DC90E05B465C68534668
:100FE0005C43089B2F009C465B461B6864449C4600
:100FF000009BA4006444002B00DC99E00023039FC5
:1010000099463B00A04600262F001C003968206846
:1010100010F00DFA311C10F0F3F9061C79686068C5
:1010200010F005FA311C10F0EBF9061CB968A06845
:1010300010F0FDF9311C10F0E3F9061CF968E068C6
:1010400010F0F5F9311C10F0DBF9061C3969206944
:1010500010F0EDF9311C10F0D3F9061C79696069C4
:1010600010F0E5F9311C10F0CBF9061CB969A06944
:1010700010F0DDF9311C10F0C3F9061CF969E069C4
:1010800010F0D5F9311C10F0BBF9061C20372034C4
:1010900008239C46009BE1444B45B7DC44460F9B2C
:1010A000EF18029B0193229A009B9A4217DD994602
:1010B0000023984643464246F958019B985810F041
:1010C000B6F9011C301C10F09BF9061C01239C464C
:1010D0000333E1449C46229BE0444B45EAD120681F
:1010E000311C10F08AF901239C46119BE2449C4676
:1010F000239B20606544534500D06EE71699039A00
:101100008C46089B62440392149A013308939A42D6
:1011100000D08FE519B0F0BCBB46B246A946A04648
:10112000F0BD0025039BA9469A462E1C2F1CECE619
:10113000039B00260193B6E7F0B557464E46DE46C0
:1011400045468024E0B5B5B006AF3C192060942038
:101150007B63E823AE4E38180160BA63FB181C6845
:101160003378BFF35B8FDB0700D477E2A94D902281
:101170002369BA1813608422A368BA181360802206
:10118000BA1812686D68934202DD8423FB181A6056
:1011900094218423902279180E688C21FB18BA18A8
:1011A00012681B6856435343226879180A60002A64
:1011B00000D180E29B003B660023BB6763687B67CE
:1011C000002B00D163E2B300FB6500233B6798224C
:1011D0000423BA1813609033FB181B68002B19DD29
:1011E0008023E422FB18BA181B6812681900934286
:1011F00000DA4AE2280009010EF062FE0323C2175A
:10120000134098221B189B109B00BA181360042BE4
:1012100000DA35E28023FB181968002900DCA9E117
:1012200090207B6B38181A0000687964844642432A
:10123000091A3A616244B9647A609821E422791803
:10124000BA18126809684A43BA619A007A6104328E
:10125000FA61A02201339B00BA181360E423FB1843
:101260001B689B009B460023FB63FB643B64BB66DF
:101270009C227B6CBA1813609022BA1812689342B1
:1012800002DD9C23FB181A609423FB181B68002BBB
:1012900000DC47E19C23FB181A68002A00DC41E1CE
:1012A0009423E021FB181B687918BB659823096813
:1012B000FB188C461B68B86E53439B00BB607B6F6A
:1012C0001100FB6783006344FB6000238C46FB66D0
:1012D000FB620B00B021791839630321013B043A0A
:1012E0008B436044D31A38603B629822BA18BB6DB6
:1012F00012689A46934200DD9246FA68FB6E944665
:101300009B0063447B66FB6B88227B65FB6CBA1891
:101310003B659C23FB181B6813609C23FB181A6811
:101320008823FB181B68D21ABA62A422BA18136069
:10133000042B03DDA4220423BA1813608823FB18AE
:101340003A681B68D21A7A62002B65DDA423BA6B57
:10135000FB189146A8221B68BA18013B98467B6D82
:101360009B0099447B6E1360AC220023BA18136073
:10137000AC23AC22FB181B68BA1801331360434638
:10138000002B2CDDA8230025FB181C684B46266883
:101390005968301C10F04BF8011C606810F02DF8F3
:1013A00043466060012B16D04B46301C996810F004
:1013B0003EF8011CA06810F020F84346A060022B04
:1013C00009D04B46301CD96810F031F8011CE06898
:1013D00010F013F8E06001355C445545D6D1012387
:1013E0005B429C46A133FB181B68E0449C46A82343
:1013F000A822FB181B68BA1804331360AC23A4227C
:10140000FB18BA181B681268E1449342B0DB03E092
:10141000A4250320683B03208823A422FB18BA18C4
:101420001B681268396B9D1A7B6EBE6A0B60E423E1
:10143000FB181B6891464B609C230196FB181B68A8
:1014400088460093F86F5346FFF734F9002D37DDD7
:1014500041467C6A386D4C440319B86B4A46844651
:10146000786B9B004860A420381802608C203818E4
:10147000006863440B602B0081463963FFF7C4F9B1
:10148000E022FB6EBA181B1914689B00A0463C6B47
:1014900043442360E423FB1819689C236160FB1814
:1014A00004961B6849460393A423FB181A68534605
:1014B0000292019300922B002000FA6FFFF77CFB51
:1014C000882388227969FB188C461B68BA18043B6C
:1014D000F96913603A6D62448C463A657A6E10324F
:1014E0007A667A6D62447A653A6A9A4200D014E765
:1014F0009822BA181268B96D9446FB6A8A1AB969BB
:1015000063448C46BA65B968FA6EFB6262448C46E5
:10151000FA66FA6F6244FA679422BA1812689A421D
:1015200000DDE2E69022BA181268BB6E9446802273
:10153000BA1812686344BB6693421BDA8423FB1813
:101540001B68002B38DC90233969FB188C467A6CB9
:101550001B68D21A7A643A6C62443A64BA6CD31A41
:10156000BB647A68FB6C63449446FB64FB6B634426
:10157000FB637DE68023FA6D9B029A4207D93A6F9E
:10158000002A04D0531E1878101A10F0E7F98023AF
:101590003A6E9B029A4207D9BA6F002A04D0531EB2
:1015A0001878101A10F0DAF9BD462FB0F0BCBB461F
:1015B000B246A946A046F0BDBA6B3B6C92469B0072
:1015C0009A44B023FE18B13B9946BD6CBC6E84238F
:1015D000FB181B68A8469D4200DD9846AC22A3007C
:1015E000BA1813607A6B8C2072609C225344BA182C
:1015F000381831001268006833604346FFF704F979
:10160000E022AC23BA181268FB1894461B688C21A0
:1016100063443360E423FB181B687918736000236C
:1016200004934B46039302939423FB181B683000EA
:1016300001939C23FB181B6800937A6F434609684B
:10164000FFF7BAFA8423FB181B689C46ED1A802327
:10165000FB181B686444A342B9DC74E7300012F045
:1016600049FE364D002800D181E58023DB012B6047
:1016700080231B0330006B60AB6012F057FE76E5F1
:1016800098220423BA181360C4E51100B2E5802340
:10169000B200FA659B029A423AD813006A461633A2
:1016A000DB08DB00D31A9D4627200F2368449843AC
:1016B000386778678BE59A0080233A669B029A42E6
:1016C0000FD813006A461633DB08DB00D31A9D4699
:1016D00027200F23684498437D33FB18B8671860B0
:1016E0006CE51000103010F01BF9B867002800D12D
:1016F00064E50F221023844602409B1ADBB29C440F
:1017000061464A1E13708C23FB18B967196055E5B2
:101710001000103010F004F93867002800D156E5A9
:101720000F221023844602409B1ADBB29C44614680
:101730004A1E39671370796749E5C046683B032044
:10174000F0B557464E46DE464546E0B5B7B006AF63
:10175000824684207B65F023CB4E38180160BA6343
:10176000FB181C683378BFF35B8FDB0700D49DE266
:10177000C64D23696D683B67A368BB67534501DDB0
:101780005346BB67842179180E6880213A6FBB6F7E
:1017900056435343226879180A60002A00D1B4E204
:1017A0009B003B650023FB666368BB66002B00D192
:1017B00097E2B300FB6400237B6688220423BA18F7
:1017C00013608033FB181B68002B16DDEC23FB181D
:1017D0001B6851469A4500DA7FE2280009010EF0A5
:1017E0006FFB0323C217134088221B189B109B001A
:1017F000BA181360042B00DA6AE25346002B00DCAF
:1018000032E27A6D386F1100434259430B00B962DE
:1018100051460C1A110062431B1A9B00BA647B608C
:101820000A000B0051464B43B96B53448C46E821E8
:101830009B006344FB637918830009685B423B604B
:1018400053468C469B006344EC21BB658823791882
:10185000FB1809681B687C674B4390213B61930030
:101860005B4279180B60043BBB609B00FB60D34379
:1018700094229B00BA181360EC23A822FB181B6863
:10188000BA189B001360544603008C22BA181360E8
:10189000A34200DD14608423FB181B68002B00DCCE
:1018A00076E18C23FB181A68002A00DC70E184239F
:1018B000FB181B68B96D7B648823FB181B685343B6
:1018C0009B00FB61BB6EFB659300CB1A3B62002360
:1018D000B8213B667B63A31A7918FB621300396356
:1018E0000321013B043A8B43D31A7B61AC227B6C0E
:1018F000BA1813608822BA181268934202DDAC232A
:10190000FB181A603A6A3B6E94469B009C44624600
:101910007A62BA6D944698226344BA181360FB6BDE
:101920003B648C23FB181B68FB679C22FB6FBA1877
:101930001360042B03DD9C220423BA181360FA6F92
:10194000FB6A94466344BB61002A00DCA0E09C2350
:10195000396CA0208A46FB181B6838185A1E93461B
:10196000BA685B42524402607A6D9B1A9B009A44AB
:101970000423A4225B4299460023BA181360A023D3
:10198000FE20FB181B68800519680FF03CFDB4238E
:10199000FB181860A423FB181B685A46DB439B1AEC
:1019A0009822BA18126800269446B0229C009B0028
:1019B0005B42BA1864441360B023FB181B684A46A4
:1019C0009846A04443469958B423FB1818680FF072
:1019D0002EFD43464A4698505B46051C002B22DDEF
:1019E000534619680FF023FD011C20680FF005FD18
:1019F0005B462060012B16D05346281C59680FF017
:101A000016FD011C60680FF0F8FC5B466060022B5D
:101A100009D05346281C99680FF009FD011CA068E5
:101A20000FF0EBFCA060A823FB181B6801369C4656
:101A3000AC23FB181B6864449E42BDD1A423A4229E
:101A4000FB181B68BA18013313600122942152421B
:101A5000944679180968E3448C46A021A132BA184B
:101A60001268791862440A60042252429446943201
:101A7000BA181268E14494469C22BA181268E244EB
:101A8000934200DA7BE703E0A4250320683B0320B0
:101A9000E8219C2279180968BA188C46FB6F1268F5
:101AA000396B9C1ABB699D1A3B6E5B199B006344A2
:101AB0000B60EC23FB181B684B608C230194FB1814
:101AC0001B680093AC23FB181B68F86DFEF7F2FD52
:101AD000002C30DD7A6DF96A13008C466B433D6B48
:101AE000B96B80206A609C2263448C463818066873
:101AF0009B00BA181268634429002B603000230051
:101B00009046FEF781FEEC2228008C237D6ABA18ED
:101B100005601568FB18456004941D68AC224346B7
:101B200003950293BA1812680093019223003100C2
:101B3000FA6DFFF741F898229821BA1812687918BF
:101B4000103A0A60F9683A6C8C46FB6F62443A645A
:101B50007A69043BFB679A4200D0E6E68822BA180D
:101B60001268796C94467B6B8A1AF96963448C46D7
:101B70007A643969FA6D7B6362448C46FA653A6E21
:101B800062443A668422BA1812689A4200DDADE6D1
:101B90007B6F1C1E68DDBB6F002B00DCFEE7BA6BA1
:101BA000BB6C93469B009B4400239946B833FE18B8
:101BB000B93B9A4623004C4699467D6FBB6FA846B9
:101BC0009D4200DD9846B422A300BA1813607A6DD6
:101BD000802072608C225B44BA1838183100126879
:101BE000006833604346FEF70FFEE822B423BA18BC
:101BF0001268FB1894461B68802163443360EC2311
:101C0000FB181B68791873600023049353460393F1
:101C100002938423FB181B68300001938C23FB186C
:101C20001B680093BA6E43460968FEF7C5FFBB6F99
:101C30009C46ED1A7B6F6444A342BFDCBA6ABB6C5E
:101C400094467A6863449446BB643A68FB6B4C469E
:101C500063449446FB63BB6D3A6F6344BB657B6F23
:101C60009B1A7B67130010E68023FA6C9B029A4252
:101C700007D97A6E002A04D0531E1878101A0FF074
:101C80006DFE80233A6D9B029A4207D9FA6E002AB4
:101C900004D0531E1878101A0FF060FEBD4631B004
:101CA000F0BCBB46B246A946A046F0BD300012F0DB
:101CB00021FB374D002800D15BE58023DB012B6041
:101CC00080231B0330006B60AB6012F02FFB50E5EC
:101CD00088220423BA1813608FE5EC23FB181968D7
:101CE0007BE58023B200FA649B029A423AD8130043
:101CF0006A461633DB08DB00D31A9D4627200F23E4
:101D0000684498437866B86657E59A0080233A6538
:101D10009B029A420FD813006A461633DB08DB0099
:101D2000D31A9D4627200F23684498437133FB182C
:101D3000F866186038E5100010300FF0F1FDF86615
:101D4000002800D130E50F221023844602409B1A60
:101D5000DBB29C4461464A1E13708023FB18F9666F
:101D6000196021E5100010300FF0DAFD78660028C8
:101D700000D122E50F221023844602409B1ADBB2D9
:101D80009C4461464A1E79661370B96615E5C046E3
:101D9000683B032030B587B00D4B02AD00951A6843
:101DA000694602929A880400AA809B796A46AB71C0
:101DB000072301930023D3732FF02EFA0098A84233
:101DC00003D0029901310FF0FDFD200007B030BDB6
:101DD000C8C40410F0B5DE4657464E464546E0B549
:101DE0001F1CFE4B8FB01D68FD4B079018680A91B1
:101DF000011C00920FF004FBFA4B19680FF017FB5F
:101E0000291C0FF014FBF84B19680FF0FCFA011CA9
:101E1000FE2080050FF0F1FAF44B81461860F44B78
:101E20001E68301C0FF0B6FBF24B041C1B68301C04
:101E300098460FF0C1FBF04B8346211C40461E68BC
:101E40000FF0F5FA59468246301C0FF0F0FA011CEB
:101E500050460FF0D5FA291C0FF0E9FAE74B8246FD
:101E6000186080231B0643441800391C0FF0DFFA6A
:101E700000998046301C0FF0DAFA011C40460FF042
:101E8000BFFADF4B80461968201C0FF0D0FA189972
:101E90000FF0CDFA011C40460FF0B2FA291C0FF0EA
:101EA000C6FAD84B1899186080231B068046F01894
:101EB0000FF0BDFA291C0FF0BAFAD34B009018604E
:101EC000391C281C0FF0B3FA211C0FF09CFACF4CE0
:101ED000CF4B2668CF4C18602768CF4B83461968D4
:101EE000381C0FF0A4FACD4C311C2568041C484660
:101EF0000FF09DFA011C201C0FF082FAC84B041C45
:101F00001968281C0FF093FA011C201C0FF078FAB6
:101F100041460FF075FAC34B0C901860C24B381C49
:101F20001C68C24B19680FF082FA211C8046301CD5
:101F30000FF07DFA011C40460FF062FA291C804622
:101F400050460FF074FA011C40460FF059FA009900
:101F50000FF056FAB64B08901860B64B301C196853
:101F60000FF065FAB44B061C1968381C0FF05FFAC5
:101F7000011C301C0FF044FAB04B061C1968281CD9
:101F80000FF055FA011C301C0FF03AFA59460FF0C9
:101F900037FAAB4EAB4B3568186049460990484656
:101FA0000FF045FA291C0FF042FAA74B19680FF001
:101FB00027FAA64BA64A186012680D90211C4846C5
:101FC00090460FF034FA291C0FF031FAA14F061C8D
:101FD0003F684846391C00970FF029FA011C301C55
:101FE0000FF00EFA5146061C48460FF020FA414603
:101FF0000FF01DFA011C301C0FF002FA964B4146FF
:102000000190186048460FF012FA944B0290186045
:10201000291C201C0FF00BFA914D924E29680FF0ED
:10202000EFF93768051C391C50460FF000FA011C07
:10203000281C0FF0E5F9061C011C48460FF0F7F9C3
:10204000894B8A4A18608A4B12681B680390059373
:102050000492884D50462D68291C06950FF0E7F92B
:102060004146051C201C0FF0E2F9834B19680FF064
:10207000C7F9291C0FF0C4F9311C8346201C0FF04E
:10208000D6F90099061C201C0FF0D1F9011C301C58
:102090000FF0B6F905990FF0B3F9049B061C191C53
:1020A000504698460FF0C3F9011C301C0FF0A8F9F8
:1020B0005946061C50460FF0BAF9011C301C0FF0AF
:1020C0009FF96E4B5E4619680FF09AF96C4B0090C1
:1020D00018606C4B391C1E6048460FF0A8F96A4B1B
:1020E00004901860391C201C0FF0A1F941460FF034
:1020F00087F9291C0FF084F9644B041C1860644BA9
:10210000196806980FF07CF9624B0899071C186053
:1021100007980FF072F9604B0999069018600A98B9
:102120000FF06BF95D4B079018605D4B05981968CF
:102130000FF066F95B4B061C186058465A4B059722
:1021400018605A4B381C1C60594B19680FF058F92D
:10215000584B071C1860011C301C0FF068F9211C3B
:10216000051C58460FF063F9011C281C0FF045F9B7
:10217000051C011C381C0FF046F94F4B071C18605A
:1021800080231B065B44291C18000FF03CF94B4BC5
:102190008146186080231B06E018291C0FF033F9D4
:1021A000474B82461860291C301C0FF02CF9454B18
:1021B00080461860391C01980A970FF038F9029E82
:1021C0005146051C301C0FF032F9011C281C0FF081
:1021D00017F93D4B071C1860494677E0D0200020D6
:1021E000AC20002084230320D82000200C420320B0
:1021F00014210020182100201C2100201C42032053
:10220000CC200020605C0320645C0320B02303200A
:10221000685C0320B423032010420320B82303206A
:1022200014420320BC23032018420320C4200020B2
:10223000C02303202042032024420320C820002082
:10224000DC200020C4230320F4200020E020002014
:10225000F4500320EC500320F0500320F8500320EA
:10226000FC5003200C510320005103201451032083
:10227000E4200020EC20002004510320F82000205E
:10228000E82000200851032010510320185103209A
:10229000FC200020F0200020F84103200042032011
:1022A00000210020C85B0320CC5B0320D05B03200F
:1022B00004210020D45B0320D85B0320DC5B0320D7
:1022C000E05B0320E45B0320C033002001980FF0A3
:1022D000AEF84146051C301C0FF0A9F8011C281C63
:1022E0000FF08EF8914B061C0A99186000980FF0B9
:1022F0009EF85146051C58460FF099F8011C281C01
:102300000FF07EF88A4B494618600B9000980FF04A
:102310008EF84146051C58460FF089F8011C281C10
:102320000FF06EF8834B051C0A991860201C0FF003
:102330007EF851460A9005980FF079F8011C0A982A
:102340000FF05EF87C4B824618604946201C0FF067
:102350006EF84146814605980FF069F8011C484621
:102360000FF04EF8754B81461860391C06980FF037
:102370005EF80C990FF044F8311C804607980FF076
:1023800056F8011C40460FF03BF86D4B0B99186056
:1023900006980FF04CF808990FF032F8291C804687
:1023A00007980FF044F8011C40460FF029F8654BE0
:1023B0005146186006980FF03AF809990FF020F886
:1023C0004946804607980FF032F8011C40460FF04E
:1023D00017F85D4B391C186003980FF028F8011CA2
:1023E0000D980FF00AF8311C804604980FF01FF882
:1023F000011C40460FF001F8544B391C186000983E
:102400000FF015F8011C01980EF0F7FF311C804603
:10241000201C0FF00CF8011C40460EF0EEFF4C4B58
:10242000391C186058460FF002F8011C02980EF093
:10243000E4FF059B071C311C181C98460EF0F7FFA3
:10244000011C381C0EF0D9FF424B0B991860FE207E
:1024500080050EF0D2FF061C011C03980EF0E7FF6A
:10246000291C071C04980EF0E2FF011C381C0EF01A
:10247000C4FF394B311C186000980EF0D8FF291C9E
:10248000071C201C0EF0D3FF011C381C0EF0B5FFFA
:10249000324B311C186058460EF0C9FF291C061C2F
:1024A00040460EF0C4FF011C301C0EF0A6FF2C4B62
:1024B00049461860FE2080050EF09FFF051C011C98
:1024C00004980EF0B4FF5146061C03980EF0AFFFBF
:1024D000011C301C0EF091FF224B291C1860201C9F
:1024E0000EF0A5FF5146041C00980EF0A0FF011C41
:1024F000201C0EF082FF1C4B291C186040460EF079
:1025000096FF5146041C58460EF091FF011C201CFA
:102510000EF073FF154B1860FE2080050FB0F0BC65
:10252000BB46B246A946A046F0BDC046C433002013
:10253000C8330020CC330020D0330020D433002017
:10254000B0230320B4230320B8230320DC20002081
:10255000EC500320F4500320FC500320E420002022
:10256000045103200C51032014510320EC200020BF
:10257000F0B5DE4657464E464546E24BE0B518609C
:10258000E14B0D1C1B68E14C98464146E04BE4686A
:102590001960DD4989B04968069059608946DB4B6E
:1025A000DA491F684E68DB4B89681F605E6099607E
:1025B000DC60D94B05949A6858681C6802920491B3
:1025C0000190DB68211C404603930EF030FF029916
:1025D000824648460EF02BFF011C50460EF010FFBD
:1025E000CE4B82461968281C9B460EF020FF011C2A
:1025F00050460EF005FFCA4B0199186007904046FF
:102600009A460EF014FF0399804648460EF00FFFDD
:10261000011C40460EF0F4FE5B4680465968281CBB
:102620000EF005FF011C40460EF0EAFE55468346BB
:102630006860211C381C0EF0FAFE029A051C111C61
:10264000301C90460EF0F3FE011C281C0EF0D8FE44
:1026500001998146381C0EF0EAFE039F051C391CC7
:10266000301C0EF0E4FE011C281C0EF0C9FE211CDB
:10267000824604980EF0DBFE4146051C05980EF0DC
:10268000D6FE011C281C0EF0BBFE46460199804672
:1026900004980EF0CCFE391C051C05980EF0C7FE00
:1026A000011C281C0EF0ACFE4946071C201C0EF035
:1026B000BEFE4146051C301C0EF0B9FE011C281C54
:1026C0000EF09EFE974E31680EF09AFE964D5146E2
:1026D00004902860201C0EF0AAFE391C041C0298ED
:1026E0000EF0A5FE011C201C0EF08AFE71680EF093
:1026F00087FE49460290686001980EF098FE039AA2
:102700004146041C101C91460EF091FE011C201C39
:102710000EF076FEB1680EF073FE5146041CA86000
:1027200001980EF084FE391C804648460EF07FFE6C
:10273000011C40460EF064FEF1680EF061FEE86098
:102740007A4D071C2E680498311C0EF070FE6D68DF
:102750008046291C381C01970EF069FE291C824610
:1027600002980EF064FE41460EF04AFE311C0EF057
:102770005EFE311C071C201C0EF059FE51460EF067
:102780003FFE291C0EF053FE011C381C0EF038FED3
:10279000674B19680EF034FE664B071C1860291C45
:1027A000201C0EF044FE41460EF02AFE391C0EF0AD
:1027B0002AFE61498046894608600298311C0EF065
:1027C00036FE51460EF01CFE391C0EF01CFE49462A
:1027D000079B071C4860181C311C9A460EF027FE08
:1027E000291C814658460EF022FE011C48460EF078
:1027F00007FE011C06980EF000FE414681460EF0D1
:1028000016FE51460EF0FCFD3F4A391C106048464A
:102810000EF00DFE59460EF0F3FD3B4A8146506026
:10282000464A311C934640460EF001FE5A46011CB2
:1028300010680EF0E2FD311C8246381C0EF0F7FDE8
:102840005A46011C50680EF0D8FD291C061C404653
:102850000EF0EDFD5A46011C90680EF0CEFD291CCD
:102860008046381C0EF0E3FD5A46011CD0680EF07D
:10287000C4FD5146051C04980EF0D9FD029B41464B
:10288000071C181C9B460EF0D2FD011C381C0EF0D4
:10289000B7FD1E4A311C106004980EF0C8FD291CBB
:1028A000071C58460EF0C3FD011C381C0EF0A8FD95
:1028B000164B51465860201C0EF0B9FD019B414655
:1028C000071C181C98460EF0B2FD011C381C0EF0B7
:1028D00097FD0E4B311C9860201C0EF0A8FD291CA2
:1028E000041C40460EF0A3FD011C201C0EF088FDC8
:1028F000064BD860484609B0F0BCBB46B246A94674
:10290000A046F0BDEC5C0320A0500320602E002008
:1029100070460320A02E0020C02E0020444103203A
:10292000B0500320B02D0020802E0020C450032082
:102930005023032060460320B8330020E02E0020FF
:10294000F0B5DE4657464E464546E0B5674B83B088
:1029500059689A460EF051FD654B051C1860654B91
:102960001B689B46644B59461C680EF049FD211CB0
:102970000EF05DFD614B061C1868011C0EF040FD59
:10298000011C301C0EF03FFD5D4E31680EF038FD2D
:102990005C4B009030601868011C0EF031FD5A4B02
:1029A000061C1A68111C91460EF041FD8046011C60
:1029B000201C0EF025FD211C071C40460EF01DFDBD
:1029C000524A116890460EF032FD391C0EF01BFD84
:1029D0004946019048460EF013FD59468146281C91
:1029E0000EF00BFD011C48460EF021FD391C0EF0C7
:1029F0000AFD011C01980EF003FD4246009910608B
:102A0000071C281C0EF0FCFC391C0EF0F9FC404B96
:102A100019680EF00CFD3F4B18603F4B1860534691
:102A200019680EF0EAFC3D4B051C18603C4B1B6816
:102A3000191C9A460EF0E4FC211C0EF0F8FC394BF0
:102A400080461868011C0EF0DBFC011C40460EF0AD
:102A5000DAFC354B994619680EF0D2FC4B461860EB
:102A6000324B80461B68301C191C99460EF0DFFC67
:102A70008346011C201C0EF0C3FC4946061C484638
:102A80000EF0BEFC51468146281C0EF0B6FC011C1F
:102A900048460EF0CCFC311C0EF0B5FC211C8146E2
:102AA00058460EF0AAFC391C0EF0C1FC311C0EF089
:102AB000AAFC011C48460EF0A3FC1D4B41461860C1
:102AC000041C281C0EF09CFC211C0EF099FC194BD8
:102AD00019680EF0ACFC184B1860184B186003B066
:102AE000F0BCBB46B246A946A046F0BDA0500320AC
:102AF0000442032068460320D4200020B020002098
:102B000058460320C0200020E8330020E041032085
:102B1000B82000206C5C03205C5C0320084203208A
:102B20006C460320B42000205C460320EC330020D8
:102B3000E4410320BC200020705C0320745C03206F
:102B4000F8B5FE250024194BAD051D60DD609C60C5
:102B50005C60174B174F1D60DD609C605C60164B1E
:102B60001E68164B301C19680EF04DFC144B386073
:102B70001D605C60DD609C60124B7C601D605E606F
:102B8000DD609C60104B1C605D60104B1868011C80
:102B90000EF04DFC0E4B0F4A186012680E4B1A6077
:102BA0000E4A9C6012685C60DA60F8BD602E0020FE
:102BB000802E002044410320D4200020D820002073
:102BC000E02E0020C02E0020C45003201021002041
:102BD0005023032038230320B02D0020342303206A
:102BE000F0B5DE4657464E464546E0B50E00016854
:102BF000C7688946416805698A4681688DB08B46F9
:102C0000416980690793069050681368926805913E
:102C10000A90291C30680B92099308950EF0EDFB81
:102C20000599039070680EF0E8FB0699051CB068E2
:102C30000EF0E3FB80268046360607980EF090FCE7
:102C4000B446039B009001916344180051460EF076
:102C5000EEFB5946061C281C0EF0E9FB011C301C3B
:102C60000EF0CBFB391C061C404604970EF0DFFB30
:102C7000011C301C0EF0C1FB0EF072FC0022684BF0
:102C80000DF095FB009A019B0DF091FB0600484664
:102C90000F000EF065FC02000B0030003900169C9E
:102CA0000DF05EFB0DF088FC4946206003980EF0A5
:102CB000BEFB5946061C40460EF0B9FB011C301CF9
:102CC0000EF09EFB0499061C281C0EF0B0FB011CA4
:102CD000301C0EF092FB0EF043FC0022504B0DF026
:102CE00066FB009A019B0DF062FB060050460F0048
:102CF0000EF036FC02000B00300039000DF030FB06
:102D00000DF05AFC49466060281C0EF090FB5146BD
:102D1000061C40460EF08BFB011C301C0EF06DFBB8
:102D20000499061C03980EF082FB011C301C0EF067
:102D300067FB0EF015FC0022394B0DF038FB009AB2
:102D4000019B0DF034FB060058460F000EF008FC06
:102D500002000B00300039000DF002FB0DF02CFCDE
:102D60004946A06040460EF062FB5146061C281CF6
:102D70000EF05DFB011C301C0EF042FB5946051C99
:102D800003980EF054FB011C281C0EF036FB0EF0CD
:102D9000E7FB0022224B0DF00AFB009A019B0DF08D
:102DA00006FB060004980F000EF0DAFB02000B0091
:102DB000300039000DF0D4FA0DF0FEFB089B0999A4
:102DC000E060181C98460EF032FB079D291C0EF09F
:102DD0002EFB011C40460EF010FB059F0A99206156
:102DE000381C0EF024FB291C0EF021FB011C381CA2
:102DF0000EF003FB069E0B996061301C0EF017FB72
:102E0000291C0EF014FB011C301C0EF0F6FAA06118
:102E100000200DB0F0BCBB46B246A946A046F0BDAE
:102E20000000E03FF0B5DE4657464E4645468A462E
:102E30004168E0B58846C768816891B006688946F0
:102E40004046391C141C04930EF0F1FA4946051C47
:102E5000301C0EF0ECFA0A90011C281C09950EF0AB
:102E6000CCFA0EF07DFB02000B000DF079FA069013
:102E70000791201C02940EF073FB0B00020004006B
:102E80000D00069807990DF092FA0DF095FB524649
:102E9000391C106048460EF0CAFA83464146301C81
:102EA0000EF0C5FA5A460E90011C58460B920EF0D1
:102EB000A7FA0EF055FB02000B000DF051FA0200CC
:102EC0000B00200029000C920D930DF070FA0DF00C
:102ED00073FB5446311C6060301C0EF0A8FA41466A
:102EE000041C40460EF0A3FA051C011C201C0EF029
:102EF00084FA4946089048460EF099FA391C8346F0
:102F0000381C0EF094FA5946019008980EF075FAA4
:102F100001990EF075FA02990F900EF088FA534657
:102F20004946986040460EF082FA391C8046301CB3
:102F30000EF07DFA81461A980EF012FB06001B98DF
:102F40000F000EF00DFB02900391291C201C0EF0C7
:102F500057FA59460EF051FA01990EF04EFA0499BB
:102F60000EF065FA0EF0FCFA04000D0040464946EA
:102F70000EF046FA0EF0F4FA02000B000DF0F0F934
:102F800032003B000DF013FA02000B002000290074
:102F90000DF0E6F9029A039B04000D0006980799CC
:102FA0000DF005FA02000B00200029000DF0D8F901
:102FB0000DF002FB5346D86004980EF0D1FA0400DD
:102FC0000D00404649460EF018FA0EF0C9FA02000C
:102FD0000B000DF0C5F922002B00049405950DF0AF
:102FE000E6F904000D00089859460EF009FA019917
:102FF0000EF003FA1A990EF01AFA0EF0B1FA020066
:103000000B00200029000DF0ABF9029A039B04008D
:103010000D000C980D990DF0CAF902000B0020006C
:1030200029000DF09DF90DF0C7FA53460A99186171
:1030300009980EF0E5F90EF093FA02000B000DF07E
:103040008FF9049A059B0DF0B2F904000D000B985E
:103050000E990EF0D2F90EF083FA02000B000DF07B
:103060007FF932003B000DF0A2F902000B002000B6
:1030700029000DF075F904000D000F981B990EF052
:10308000D6F90EF06DFA02000B00200029000DF0B9
:1030900067F90DF091FA53465861002011B0F0BC69
:1030A000BB46B246A946A046F0BDC046F0B50400F6
:1030B000DE4657464E4645460800E0B54568096875
:1030C000AA46856895B0AB46C56846698769109180
:1030D0000E950169556810689268049690461A68C2
:1030E000069711925A689B6812921393FE239B05D0
:1030F000236099460EF081F90EF032FA00900191AA
:103100001E980EF02DFA06000F000098019900227B
:10311000924B0DF04CF932003B000DF048F90DF0E8
:103120004BFA04990390E061281C0EF066F90EF04A
:1031300017FA0022894B049005910DF038F93200FE
:103140003B000DF034F90DF037FA0699051CA06329
:1031500040460EF052F90EF003FA00227F4B069023
:1031600007910DF024F932003B000DF020F90DF02D
:1031700023FA0A90606550460EF0F2F90022784B6F
:10318000089009910DF013F932003B000DF00FF992
:103190000DF012FA0B90206758460EF0E1F900226C
:1031A0006F4B0C900D910DF002F932003B000DF0C9
:1031B000FEF80DF001FA8C238246E0500E980EF0D6
:1031C000CFF90022664B0E900F910DF0F0F832000F
:1031D0003B000DF0ECF80DF0EFF9A8238346E0502A
:1031E0000022009801995E4B0DF0E1F832003B009F
:1031F0000DF0DDF80DF0E0F94946009060602162C5
:10320000002206980799564B0DF0D1F832003B008A
:103210000DF0CDF80DF0D0F9A5658046E06310986B
:103220000EF09EF900224D4B0DF0C1F832003B002C
:103230000DF0BDF80DF0C0F959469023051C6067EC
:103240000022E1500C980D99444B0DF0B0F832007B
:103250003B000DF0ACF80DF0AFF9AC230022E050CC
:10326000049805993E4B0DF0A2F832003B000DF09A
:103270009EF80DF0A1F949460A9A83466262009AC7
:10328000A0602164E2650E980F990022334B0DF087
:103290008EF832003B000DF08AF80DF08DF9942382
:1032A0000B99A067E5501C33E1504146E160594657
:1032B000A162494621665146039BE1676364089811
:1032C00009990022254B0DF072F832003B000DF0F9
:1032D0006EF80DF071F99823E0501C33E55000258D
:1032E0001E9911982561E562A56465660EF09FF848
:1032F000011C48460EF081F88023E0501C33E55055
:103300001C33E550343B1E99129865612563E564D2
:10331000A566E5500EF08BF8011C48460EF06DF8DE
:10332000A023E0501C33E550343BA561656325655F
:10333000E566E5501C33E5501E9913980EF077F8BA
:10334000011C48460EF059F8C023E050002015B08B
:10335000F0BCBB46B246A946A046F0BD0000E0BFA7
:103360000000E03FF0B5DE4657464E464546E0B524
:103370009A460B68141C8A689B464B68C9688BB0D8
:103380000500101C8846009301920EF0E9F80290A7
:103390000391201C0EF0E4F8C02306000F000298F1
:1033A000039900221B060DF002F832003B000CF0DE
:1033B000FEFF0DF001F90890286040460EF0D0F8AD
:1033C00002000B000CF0CCFF32003B000CF0EFFFD2
:1033D0000DF0F2F8041CA86158460EF0C1F8C023A5
:1033E00000221B06049005910CF0E1FF32003B0027
:1033F0000CF0DDFF0DF0E0F8286300980EF0B0F857
:1034000002000B00069007910CF0AAFF32003B006F
:103410000CF0CDFF0DF0D0F8002190238946A86470
:103420002966A967E95068600498059902000B00B5
:103430000CF096FF32003B000CF0B9FF0DF0BCF829
:103440006C630490E8610298039902000B000CF091
:1034500087FF32003B000CF0AAFF0DF0ADF84946A3
:103460009423E8646966E967E950C02306980799E0
:10347000049A1B06AA6000220CF099FF32003B0060
:103480000CF095FF0DF098F8089B4946AB6380233C
:1034900028622C65A966E9501833E9504046149912
:1034A0000DF0C5FF019F1599061C381C0DF0BFFFDC
:1034B0005146041C58460DF0BAFF311C0DF0A0FF18
:1034C000211C06940DF099FF011C0DF099FF514647
:1034D0000990E86000980DF0AAFF1499041C381CAC
:1034E0000DF0A5FF011C201C0DF08AFF1599041C8E
:1034F00040460DF09CFF011C201C0DF081FF011CBB
:103500000DF07EFF14990290686200980DF08FFF15
:103510001599089058460DF08AFF019A8024944628
:1035200024066444071C514620000DF080FF0899D2
:103530000DF066FF391C0DF060FF011C0DF060FFFF
:103540001499E86358460DF072FF1599049000989D
:103550000DF06DFF802212064244041C51461000FB
:103560000DF065FF04990DF04BFF211C0DF048FF95
:10357000011C0DF045FF4A468423EA666865EA505F
:103580001833EA505146286101980DF050FF089910
:103590000DF033FF391C0DF033FF011C0DF030FF2F
:1035A000071CA8628020029B00062B6451465844E9
:1035B0000DF03DFF311C0DF020FF06990DF020FFAE
:1035C000011C0DF01DFF8823A86548462867E850B8
:1035D0001833E850514640466F610DF028FF0499BA
:1035E0000DF00BFF211C0DF008FF011C0DF008FF72
:1035F000099AE8626A64029B4A46EB654B466B6730
:103600008C230020EA501833EA500BB0F0BCBB46C4
:10361000B246A946A046F0BD0123F0B5E3214746D6
:10362000CE469C46294B804605009946284E80B5DB
:103630008900076846444144FA0F6F68D2077B004F
:103640005B08346813435A08624064461C4201D048
:103650004B465A4004C50436A942EDD1E323424605
:103660009B00C626D458194B01259C46F6004644BB
:10367000E20F4C68D20763005B08076813435A08DF
:103680007A401D4201D063465A40043004C1B04222
:10369000EED14246C62140460E4BC900D3581268AF
:1036A000DB0F52005208DB07415813435A084A40C7
:1036B000DB0701D5054B5A404146064BCA50002254
:1036C0000433CA50C0BCB946B046F0BDDFB008995B
:1036D00034060000BC090000F0B54546DE465746FA
:1036E0004E46E0B53C4CD723A54434AA94466344E7
:1036F0001B091B018A6805930B68019237921A68AF
:1037000004902D929A6933912E921A6B38AC2F92B5
:103710009A6C30921A6E06929A6F089290229A587A
:1037200007925A680A92DA690B925A6B0C92DA6C19
:103730000D925A6E0E92DA6F0F9294229A5810924E
:103740009A6811921A6A12929A6B13921A6D1492D5
:103750009A6E159280229A58169298229A58179229
:10376000DA6818925A6A1992DA6B1A925A6D1B9299
:10377000DA6E1C9284229A581D929C229A581E92AC
:103780001A691F929A6A20921A6C21929A6D22925B
:103790001A6F239288229A582492A0229A5825922E
:1037A0005A692692DA6A27925A6C2892DA6D29921F
:1037B0005A6F2A928C229A582B92A4229B582C93AF
:1037C0004B68984638AB3293C4234344099343462D
:1037D000A0461C0002E0C0469CFDFFFFE168A26815
:1037E00089462169236848460391309902920193E2
:1037F0000DF01DFE0399824606980DF018FE011C7F
:1038000050460DF0FDFD67698246391C08980DF0A1
:103810000EFEA6698346311C07980DF008FE011CB8
:1038200058460DF0EDFD011C50460DF0E9FD6568B0
:1038300082462E99281C0DF0FAFD2F998346029896
:103840000DF0F5FD011C58460DF0DAFD2D9983466B
:1038500001980DF0ECFD011C58460DF0D1FD011C46
:1038600050460DF0CDFD4346494618600D980DF0C9
:10387000DEFD039982460E980DF0D9FD011C5046DD
:103880000DF0BEFD391C82460F980DF0D0FD311CA5
:10389000834610980DF0CBFD011C58460DF0B0FD8D
:1038A000011C50460DF0ACFD291C82460B980DF012
:1038B000BEFD029983460C980DF0B9FD011C5846D7
:1038C0000DF09EFD019983460A980DF0B0FD011C94
:1038D00058460DF095FD011C50460DF091FD4346F4
:1038E0004946586014980DF0A2FD03998246159838
:1038F0000DF09DFD011C50460DF082FD391C8246E5
:1039000016980DF094FD311C834617980DF08FFD2D
:10391000011C58460DF074FD011C50460DF070FD61
:10392000291C824612980DF082FD02998346139855
:103930000DF07DFD011C58460DF062FD0199834696
:1039400011980DF074FD011C58460DF059FD011C35
:1039500050460DF055FD4346494698601B980DF0C2
:1039600066FD039982461C980DF061FD011C5046CE
:103970000DF046FD391C82461D980DF058FD311C96
:1039800083461E980DF053FD011C58460DF038FD7E
:10399000011C50460DF034FD291C824619980DF08B
:1039A00046FD029983461A980DF041FD011C5846C8
:1039B0000DF026FD0199834618980DF038FD011C85
:1039C00058460DF01DFD011C50460DF019FD4346F3
:1039D0004946D86022980DF02AFD03998246239823
:1039E0000DF025FD011C50460DF00AFD391C8246E4
:1039F00024980DF01CFD311C834625980DF017FD11
:103A0000011C58460DF0FCFC011C50460DF0F8FC62
:103A1000291C824620980DF00AFD029983462198C0
:103A20000DF005FD011C58460DF0EAFC0199834696
:103A30001F980DF0FCFC011C58460DF0E1FC011C28
:103A400050460DF0DDFC43464946186129980DF0BB
:103A5000EEFC039981462A980DF0E9FC011C4846CA
:103A60000DF0CEFC391C81462B980DF0E0FC311C8A
:103A7000071C2C980DF0DBFC011C381C0DF0C0FC61
:103A8000011C48460DF0BCFC291C061C27980DF0B3
:103A9000CEFC0299051C28980DF0C9FC011C281CBD
:103AA0000DF0AEFC0199051C26980DF0C0FC011C20
:103AB000281C0DF0A5FC011C301C0DF0A1FC434698
:103AC000586118239C46099B1C34E044A34200D053
:103AD00084E6379B1A68629308929A6909921A6B76
:103AE0000A929A6C0B921A6E0C929A6F0D92902217
:103AF0009A580E925A680F92DA6910925A6B119284
:103B0000DA6C12925A6E1392DA6F149294229A58C7
:103B100015929A6816921A6A17929A6B18921A6DF1
:103B200019929A6E1A9280229A581B9298229A5849
:103B30001C92DA681D925A6A1E92DA6B1F925A6DB5
:103B40002092DA6E219284229A5822929C229A58CC
:103B500023921A6924929A6A25921A6C26929A6D77
:103B6000059C27921A6F2034289288229A58A146E1
:103B70002992A0229A582A925A692B92DA6A2C9298
:103B80005A6C2D92DA6D2E925A6F2F928C229A587F
:103B90003092A4229B5831935CAB06933EAB0793C3
:103BA000329B984643464246414640461B689569CB
:103BB0000193069B146B096E926C40CB876F029148
:103BC000101C0B99039206930DF031FC0C99824660
:103BD00002980DF02CFC011C50460DF011FC0D99C3
:103BE0008246381C0DF023FC0E998346301C0DF0E4
:103BF0001EFC011C58460DF003FC011C50460DF044
:103C0000FFFB09998246281C0DF011FC0A99834696
:103C1000201C0DF00CFC011C58460DF0F1FB08991E
:103C2000834601980DF003FC011C58460DF0E8FB9B
:103C3000011C50460DF0E4FB4B46129918600398A6
:103C40000DF0F5FB1399824602980DF0F0FB011C74
:103C500050460DF0D5FB14998246381C0DF0E7FB59
:103C600015998346301C0DF0E2FB011C58460DF0FF
:103C7000C7FB011C50460DF0C3FB10998246281C5F
:103C80000DF0D5FB11998346201C0DF0D0FB011CD3
:103C900058460DF0B5FB0F99834601980DF0C7FB10
:103CA000011C58460DF0ACFB011C50460DF0A8FB62
:103CB0004B461999586003980DF0B9FB1A99824642
:103CC00002980DF0B4FB011C50460DF099FB1B99B6
:103CD0008246381C0DF0ABFB1C998346301C0DF05E
:103CE000A6FB011C58460DF08BFB011C50460DF045
:103CF00087FB17998246281C0DF099FB189983467B
:103D0000201C0DF094FB011C58460DF079FB169910
:103D1000834601980DF08BFB011C58460DF070FB9B
:103D2000011C50460DF06CFB4B462099986003989F
:103D30000DF07DFB2199824602980DF078FB011C65
:103D400050460DF05DFB22998246381C0DF06FFB4A
:103D500023998346301C0DF06AFB011C58460DF078
:103D60004FFB011C50460DF04BFB1E998246281C50
:103D70000DF05DFB1F998346201C0DF058FB011CC4
:103D800058460DF03DFB1D99834601980DF04FFB01
:103D9000011C58460DF034FB011C50460DF030FB61
:103DA0004B462799D86003980DF041FB289982462D
:103DB00002980DF03CFB011C50460DF021FB2999A7
:103DC0008246381C0DF033FB2A998346301C0DF0D7
:103DD0002EFB011C58460DF013FB011C50460DF044
:103DE0000FFB25998246281C0DF021FB269983465E
:103DF000201C0DF01CFB011C58460DF001FB249902
:103E0000834601980DF013FB011C58460DF0F8FA9B
:103E1000011C50460DF0F4FA4B462E991861039898
:103E20000DF005FB2F99824602980DF000FB011C56
:103E300050460DF0E5FA30998246381C0DF0F7FA3D
:103E40003199071C301C0DF0F2FA011C381C0DF0E2
:103E5000D7FA011C50460DF0D3FA2C99061C281CE9
:103E60000DF0E5FA2D99051C201C0DF0E0FA011C5F
:103E7000281C0DF0C5FA2B99041C01980DF0D7FAF7
:103E8000011C201C0DF0BCFA011C301C0DF0B8FA0E
:103E90004B46586104239C461433E0449C46079BE0
:103EA000E144434500D07DE6339B059DDC68296AEB
:103EB00020680DF0A5FA049EA96B306060680DF0D3
:103EC0009FFA7060A068296D0DF09AFAB060E06802
:103ED000A96E0DF095FA8023F0602069E9589846A4
:103EE0000DF08EFA98233061E95860690DF088FA78
:103EF0007061A069696A0DF083FAB061E069E96BED
:103F00000DF07EFAF061206A696D0DF079FA306289
:103F1000E96E606A0DF074FA84277062A06AE9594C
:103F20000DF06EFA9C23B062E958E06A0DF068FA71
:103F3000F062206BA96A0DF063FA3063606B296C44
:103F40000DF05EFA7063A06BA96D0DF059FAB063C5
:103F5000E06B296F0DF054FAF0638826206CA959A4
:103F60000DF04EFA049B1864A023606CE9580DF024
:103F700047FA049BE96A5864A06C0DF041FA049B6F
:103F8000696C9864E06C0DF03BFA049BE96DD864B1
:103F9000206D0DF035FA049B696F1865606D0DF0AA
:103FA0002FFA8C25049A059B5065A06D59590DF088
:103FB00027FAA423049A9065059AE06DD1580DF074
:103FC0001FFA049B059AD865116B206E0DF018FA44
:103FD000049B059A1866916C606E0DF011FA049BB3
:103FE000059A5866A06E116E0DF00AFA049B059AA8
:103FF0009866E06E916F0DF003FA049B059AD866FF
:104000009023206FD1580DF0FBF9049B059A186797
:10401000A823606FD1580DF0F3F9049B059A5867F7
:10402000A16F506B0DF0ECF9049B059A9867E16F56
:10403000D06C0DF0E5F94146049B059AD8676158AC
:10404000506E0DF0DDF94146049B059A5850E15938
:10405000D06F0DF0D5F9049BD8519423059FA15939
:10406000F8580DF0CDF9049B9851AC236159F858DC
:104070000DF0C6F9049B585199239B009D44F0BC58
:10408000BB46B246A946A046F0BDC046F0B5DE46E6
:1040900057464E4645460400E0B5436887B0580091
:1040A000A3684008590049080DF0AAF9236859008F
:1040B00049080DF0A5F92369051C580063694008FB
:1040C000590049080DF09CF9E368590049080DF0C2
:1040D00097F9011C281C0DF093F9E369051C5800A1
:1040E000236A4008590049080DF08AF9A36959006C
:1040F00049080DF085F9A36A061C5800E36A4008D8
:10410000590049080DF07CF9636A590049080DF01F
:1041100077F9011C301C0DF073F9636B071C580014
:10412000A36B4008590049080DF06AF9236B590048
:1041300049080DF065F9236C061C5800636C4008B3
:10414000590049080DF05CF9E36B590049080DF07E
:1041500057F9011C301C0DF053F9061C011C381CCA
:104160000DF09CF9002800D13E1C311C281C0DF0DC
:1041700095F9002800D12E1CE36C5800236D4008EF
:10418000590049080DF03CF9A36C590049080DF09D
:1041900037F9A36D051C5800E36D40085900490824
:1041A0000DF02EF9636D590049080DF029F9011C35
:1041B000281C0DF025F9636E071C5800A36E4008FB
:1041C000590049080DF01CF9236E590049080DF0FB
:1041D00017F9236F051C5800636F40085900490800
:1041E0000DF00EF9E36E590049080DF009F9011CB4
:1041F000281C0DF005F9E36F804658008023E15834
:104200004008490049080DF0FBF8A36F5900490820
:104210000DF0F6F88823051CE0580433E1584000FF
:104220004900490840080DF0EBF88423E1584900A3
:1042300049080DF0E5F8011C281C0DF0E1F8051CFB
:10424000011C40460DF02AF9002800D14546291CE2
:10425000381C0DF023F9002800D13D1C291C301C0E
:104260000DF01CF9002800D1351CC0232100E550B9
:1042700001AABA3B02A8A83104930294FCF7EEFA13
:104280000121C422019B98260B405B428B430133E2
:10429000A354343A9246002250469C27225094322E
:1042A000A1509346923AA2510132E2519D32944676
:1042B00060469C3A2250A03291469F3A90464A4628
:1042C00040462300A05048461832A258903392002E
:1042D0009A1815682550404610606046B82220584C
:1042E000A2588046604692009A18156825504046AC
:1042F0001060B422E059A258844692009A181068BF
:104300005D46E05160461060B022A258A759920065
:104310009A181068A0511760AC225846A258265827
:1043200092009A18106860511660A822A25855464B
:1043300092009B1852461868A25860511A60C52313
:10434000E15407B0F0BCBB46B246A946A046F0BD5A
:10435000C023002210B5C25000220433C2520B68A1
:10436000040003604B6843608B688360CB68C36064
:104370000B6903614B6943618B698361CB69C361DD
:104380000B6A03624B6A43628B6A8362CB6AC362C5
:104390000B6B03634B6B43638B6B8363CB6BC363AD
:1043A0000B6C03644B6C43648B6C8364CB6CC36495
:1043B0000B6D03654B6D43658B6D8365CB6DC3657D
:1043C0000B6E03664B6E43668B6E8366CB6EC36665
:1043D0000B6F03674B6F43678B6F8367CB6FC3674D
:1043E0008023CA58C2500433CA58C2500433CA5832
:1043F000C2500433CA58C250FFF748FE200010BD17
:10440000F0B5DE464E4645465746E0B5214C91464E
:10441000A5443AAA94460A0031931F4B3B9063444B
:104420001B091B013A919846D3AB13CA13C313CA95
:1044300013C31268D3A91A60184B194A1B6847A8FE
:104440000493184B47AC1B680193174B1B680593EB
:104450000093049BFEF786FF47ABD3934B46D49360
:1044600047ABD5933AAA8323944686201B01634425
:104470001B68C0004044A2AAD3A9D6930990FFF7B5
:104480002BF96BAB089343460A934B463094A146F5
:104490001C000BE014F7FFFF470300000822032075
:1044A0000AE81C4100220320042203204B464E460A
:1044B0001B68B76F0793089B494640CB48464A465E
:1044C0000893A823896C006E9569126B059106907C
:1044D000E158301C04920CF0AAFF8C238246E1586C
:1044E000381C0CF0A4FF011C50460CF089FF216F12
:1044F000824606980CF09BFF616D834605980CF090
:1045000096FF011C58460CF07BFF011C50460CF036
:1045100077FFA16B824604980CF089FFE16983461E
:10452000281C0CF084FF011C58460CF069FF216820
:10453000834607980CF07BFF011C58460CF060FF87
:10454000011C50460CF05CFF43461860AC23301C45
:10455000E1580CF06CFF90238246E158381C0CF0B7
:1045600066FF011C50460CF04BFF616F82460698B7
:104570000CF05DFFA16D834605980CF058FF011CFF
:1045800058460CF03DFF011C50460CF039FFE16B22
:10459000824604980CF04BFF216A8346281C0CF0DD
:1045A00046FF011C58460CF02BFF616883460798B4
:1045B0000CF03DFF011C58460CF022FF011C504638
:1045C0000CF01EFF43465860B023301CE1580CF03D
:1045D0002EFF94238246E158381C0CF028FF011C62
:1045E00050460CF00DFFA16F824606980CF01FFF9D
:1045F000E16D834605980CF01AFF011C58460CF03B
:10460000FFFE011C50460CF0FBFE216C8246049814
:104610000CF00DFF616A8346281C0CF008FF011C9A
:1046200058460CF0EDFEA168834607980CF0FFFE9B
:10463000011C58460CF0E4FE011C50460CF0E0FE54
:1046400043469860B423301CE1580CF0F0FE9823E8
:104650008246E158381C0CF0EAFE011C50460CF072
:10466000CFFEE16F824606980CF0E1FE216E834694
:1046700005980CF0DCFE011C58460CF0C1FE011C34
:1046800050460CF0BDFE616C824604980CF0CFFEE3
:10469000A16A8346281C0CF0CAFE011C58460CF087
:1046A000AFFEE168834607980CF0C1FE011C584636
:1046B0000CF0A6FE011C50460CF0A2FE4346D8604A
:1046C000B823301CE1580CF0B2FE9C238246E1581E
:1046D000381C0CF0ACFE011C50460CF091FE8023FF
:1046E0008246E15806980CF0A2FE616E834605985A
:1046F0000CF09DFE011C58460CF082FE011C504639
:104700000CF07EFEA16C824604980CF090FEE16AEB
:104710008346281C0CF08BFE011C58460CF070FEE2
:104720002169834607980CF082FE011C58460CF064
:1047300067FE011C50460CF063FE43461861BC2323
:10474000301CE1580CF073FEA0238246E158381C5F
:104750000CF06DFE011C50460CF052FE8423824684
:10476000E15806980CF063FEA16E834605980CF0A4
:104770005EFE011C58460CF043FE011C50460CF036
:104780003FFEE16C824604980CF051FE216B83469B
:10479000281C0CF04CFE011C58460CF031FE6169DF
:1047A000834607980CF043FE011C58460CF028FE87
:1047B000011C50460CF024FE4346E16E58610598FA
:1047C0000CF035FE88238246E15806980CF02FFE47
:1047D000011C50460CF014FEA4238246E158381CFC
:1047E0000CF025FEC023071CE158301C0CF01FFE06
:1047F000011C381C0CF004FE011C50460CF000FE9D
:10480000616B061C281C0CF012FE216D051C04981F
:104810000CF00DFE011C281C0CF0F2FDA169051C1A
:1048200007980CF004FE011C281C0CF0E9FD011C8B
:10483000301C0CF0E5FD4346986104239C46183378
:10484000E1449C464DABE044994500D02EE60A9BDE
:10485000A146D8249846A427A4004444BF00474456
:1048600020000999FFF774FD210090223800C82428
:104870000DF092F8FC21A400444489004144182220
:1048800020000DF089F8CE2081218000C90041442C
:10489000182240440DF080F88422D423D2004244F0
:1048A00012689B0043441A60D523874A4546424418
:1048B00012889B004344FE211A8000232268B035F1
:1048C0009200AA18890511609361136393641366BB
:1048D0009367C92292004244126844469200AA1883
:1048E000136091611363936413669367CA22920005
:1048F0004244126806269200AA181360936111635D
:10490000936413669367CB22920042441268062098
:104910009200AA18136093611363916413669367FE
:10492000CC229200424412689200AA18136093614C
:104930001363936411669367CD2292004244126818
:104940009200AA1813609361136393641366A823FB
:104950005B009B46916742465946E4182033434426
:10496000A660E660266153508022920042444B3993
:104970006260924604933A0006230294FF3901963E
:104980000095FCF7D9FB42465946049BA660E660B9
:104990002661535053464B3963603A000623029414
:1049A000062001960095FF39FCF7CAFE43461B68B6
:1049B0008C2206934346DB69D3AC079343469B6B3B
:1049C000089343465B6D099343461B6F0A93434626
:1049D0009B5804320B9343465B680C9343461B6A17
:1049E0000D934346DB6B0E9343469B6D0F934346FB
:1049F0005B6F109343469B580432119343469B6868
:104A0000129343465B6A139343461B6C14934346CD
:104A1000DB6D159343469B6F169343469B580432B8
:104A200017934346DB68189343469B6A19934346A2
:104A30005B6C1A9343461B6E1B934346DB6F1C93C0
:104A400043469B58183A1D9343461B691E934346A1
:104A5000DB6A1F9343469B6C209343465B6E219316
:104A600043469B581C32229343469B58183A239343
:104A700043465B69249343461B6B25934346DB6C9B
:104A8000269343469B6E279343469B581C3228939C
:104A900043469B58183A299343469B692A934346B9
:104AA0005B6B2B9343461B6D2C934346DB6E2D9320
:104AB00043469B581C322E9343469B58A8462F933F
:104AC0004B46329302E0C0462404000043461F6870
:104AD0005B6842469946434641469B68D2680E69E8
:104AE0004D6907984946049305920CF0A0FC04997F
:104AF000824608980CF09BFC011C50460CF080FC90
:104B0000391C824606980CF092FC011C50460CF0B1
:104B100077FC311C82460A980CF089FC291C8346DC
:104B20000B980CF084FC011C58460CF069FC0599AC
:104B3000834609980CF07BFC011C58460CF060FC85
:104B4000011C50460CF05CFC494620600D980CF0AE
:104B50006EFC049982460E980CF069FC011C5046CC
:104B60000CF04EFC391C82460C980CF060FC011CC9
:104B700050460CF045FC311C824610980CF057FC56
:104B8000291C834611980CF052FC011C58460CF06D
:104B900037FC059983460F980CF049FC011C5846D8
:104BA0000CF02EFC011C50460CF02AFC49466060BB
:104BB00013980CF03CFC0499824614980CF037FCD6
:104BC000011C50460CF01CFC391C824612980CF05B
:104BD0002EFC011C50460CF013FC311C824616982A
:104BE0000CF025FC291C834617980CF020FC011CB6
:104BF00058460CF005FC0599834615980CF017FCF7
:104C0000011C58460CF0FCFB011C50460CF0F8FB54
:104C10004946A06019980CF00AFC049982461A983B
:104C20000CF005FC011C50460CF0EAFB391C8246D6
:104C300018980CF0FCFB011C50460CF0E1FB311CF9
:104C400082461C980CF0F3FB291C83461D980CF03F
:104C5000EEFB011C58460CF0D3FB059983461B98CC
:104C60000CF0E5FB011C58460CF0CAFB011C504639
:104C70000CF0C6FB4946E0601F980CF0D8FB049985
:104C8000824620980CF0D3FB011C50460CF0B8FB78
:104C9000391C82461E980CF0CAFB011C50460CF0D1
:104CA000AFFB311C824622980CF0C1FB291C8346C5
:104CB00023980CF0BCFB011C58460CF0A1FB059995
:104CC000834621980CF0B3FB011C58460CF098FB6E
:104CD000011C50460CF094FB4946206125980CF0CD
:104CE000A6FB0499824626980CF0A1FB011C5046B5
:104CF0000CF086FB391C824624980CF098FB011CB2
:104D000050460CF07DFB311C824628980CF08FFB3E
:104D1000291C834629980CF08AFB011C58460CF08C
:104D20006FFB0599834627980CF081FB011C5846C0
:104D30000CF066FB011C50460CF062FB49466061BA
:104D40002B980CF074FB049981462C980CF06FFBA7
:104D5000011C48460CF054FB391C81462A980CF083
:104D600066FB011C48460CF04BFB311C071C2E98BF
:104D70000CF05DFB291C061C2F980CF058FB011C45
:104D8000301C0CF03DFB0599051C2D980CF04FFBD9
:104D9000011C281C0CF034FB011C381C0CF030FBEF
:104DA00018239C46A061FDAB1C34E044A34200D014
:104DB0008CE6329BD49A9946D39BD599D69CD79DA5
:104DC000D89ED99F06930792DA9BDB9A08910994A3
:104DD000DC99DD9C0A950B96DE9DDF9E0C970D936A
:104DE000E09FE19B0E92E29A0F911094119512961A
:104DF000139714931592E399E49CE59DE69EE79F33
:104E0000E89BE99A16911794EA99EB9C18951996E4
:104E1000EC9DED9E1A971B93EE9FEF9B1C921D91AC
:104E2000F09AF1991E94F29C209621972293239256
:104E3000249125941F95F39DF49EF59FF79AF69B78
:104E4000F899F99C26952796FA9DFB9E2897FC9F3A
:104E50002A923A9A29932B912C942D952E962F973E
:104E6000D3AB32CA32C332CA32C31168D3AC196071
:104E7000FD49FE4B09681B680191FD49FD4A09681F
:104E80002000009141A9FDF7CDFF319F419938687D
:104E90000CF0B3FA4299834678680CF0AEFA439965
:104EA0008246B8680CF0A9FA4499041CF8680CF022
:104EB000A4FA4599051C38690CF09FFA4699061C1E
:104EC00078690CF09AFA071C011C2A980CF0AFFACA
:104ED000311C804623980CF0AAFA011C40460CF0C5
:104EE0008FFA291C80461C980CF0A1FA011C404640
:104EF0000CF086FA211C804615980CF098FA514661
:104F000004900E980CF093FA011C04980CF078FAB7
:104F10005946049007980CF08AFA011C04980CF08A
:104F20006FFA011C40460CF06BFA3A9A51680CF08B
:104F300067FA391C04902B980CF079FA311C8046E2
:104F400024980CF074FA011C40460CF059FA291C04
:104F500080461D980CF06BFA011C40460CF050FA8C
:104F6000211C804616980CF062FA514605900F9865
:104F70000CF05DFA011C05980CF042FA59460590B8
:104F800008980CF054FA011C05980CF039FA011C31
:104F900040460CF035FA3A9A91680CF031FA391C17
:104FA00005902C980CF043FA311C804625980CF0A3
:104FB0003EFA011C40460CF023FA291C80461E983C
:104FC0000CF035FA011C40460CF01AFA211C804600
:104FD00017980CF02CFA5146319010980CF027FAE3
:104FE000011C31980CF00CFA5946319009980CF0DC
:104FF0001EFA011C31980CF003FA011C40460CF01B
:10500000FFF93A9AD1680CF0FBF9391C31902D98D0
:105010000CF00DFA311C804626980CF008FA011CA1
:1050200040460CF0EDF9291C80461F980CF0FFF962
:10503000011C40460CF0E4F9211C804618980CF045
:10504000F6F95146329011980CF0F1F9011C3298A2
:105050000CF0D6F9594632900A980CF0E8F9011C88
:1050600032980CF0CDF9011C40460CF0C9F93A9A7F
:1050700011690CF0C5F9391C32902E980CF0D7F953
:10508000311C804627980CF0D2F9011C40460CF0E8
:10509000B7F9291C804620980CF0C9F9011C40463C
:1050A0000CF0AEF9211C804619980CF0C0F951465D
:1050B000339012980CF0BBF9011C33980CF0A0F956
:1050C000594633900B980CF0B2F9011C33980CF050
:1050D00097F9011C40460CF093F93A9A51690CF08B
:1050E0008FF95146339013980CF0A1F9211C80469A
:1050F0001A980CF09CF9011C40460CF081F95946B5
:1051000080460C980CF093F9011C40460CF078F99D
:10511000311C804628980CF08AF9391C34902F985D
:105120000CF085F9011C34980CF06AF9291C3490B4
:1051300021980CF07CF9011C34980CF061F9011CE9
:1051400040460CF05DF93A9A91690CF059F9391C16
:10515000804629980CF06BF9311C071C22980CF042
:1051600066F9011C381C0CF04BF9291C061C1B9815
:105170000CF05DF9011C301C0CF042F9211C051CDF
:1051800014980CF054F95146041C0D980CF04FF98A
:10519000011C201C0CF034F95946041C06980CF034
:1051A00046F9011C201C0CF02BF9011C281C0CF0EA
:1051B00027F93A9AD3AC11680CF022F93B9B049A78
:1051C00018605A60059A9A60319ADA60329A1A61C8
:1051D000339A5A6142469A614B461B684A46A293EB
:1051E0004B465B68A3934B469B68A4934B46DB6896
:1051F000A5934B461B69A6934B465B69A7934B4609
:105200009B69A8934B46DB69A9934B461B6AAA93FB
:105210004B465B6AAB934B469B6AAC934B46DB6A4F
:10522000AD934B461B6BAE934B465B6BAF934B46BC
:105230009B6BB0934B46DB6BB1934B461B6CB293AD
:105240004B465B6CB3934B469B6CB4934B46DB6C09
:10525000B5934B461B6DB6934B465B6DB7934B4670
:105260009B6DB8934B4607E00022032008220320E1
:10527000042203200AE81C41DB6DB9934B461B6EE8
:10528000BA934B465B6EBB934B469B6EBC934B46AF
:10529000DB6EBD934B461B6FBE934B465B6FBF935C
:1052A0004B469B6FC0934B46DB6FC1938023D35813
:1052B000C2938423D358C3938823D358C4938C2395
:1052C000D358C5939023D358C6939423D358C793E8
:1052D0009823D358C8939C23D358C993A023D35859
:1052E000CA93A423D358CB93A823D358CC93AC23ED
:1052F000D358CD93B023D358CE93B423D358CF9360
:10530000B823D358D093BC23D358D193C023D358B8
:10531000D293309B3092984643461F685B68424662
:105320009946434641469B68D2680E694D690D987F
:105330004946049305920CF07AF804998246149831
:105340000CF075F8011C50460CF05AF8391C8246D6
:1053500006980CF06CF8011C50460CF051F8311C0A
:10536000824622980CF063F8291C834629980CF099
:105370005EF8011C58460CF043F8059983461B98CB
:105380000CF055F8011C58460CF03AF8011C504638
:105390000CF036F8494620600E980CF048F8049955
:1053A000824615980CF043F8011C50460CF028F882
:1053B000391C824607980CF03AF8011C50460CF054
:1053C0001FF8311C824623980CF031F8291C8346C3
:1053D0002A980CF02CF8011C58460CF011F805998D
:1053E00083461C980CF023F8011C58460CF008F872
:1053F000011C50460CF004F8494660600F980CF010
:1054000016F80499824616980CF011F8011C5046C3
:105410000BF0F6FF391C824608980CF008F8011CC6
:1054200050460BF0EDFF311C824624980BF0FFFF35
:10543000291C83462B980BF0FAFF011C58460BF0F1
:10544000DFFF059983461D980BF0F1FF011C5846BC
:105450000BF0D6FF011C50460BF0D2FF4946A0606E
:1054600010980BF0E4FF0499824617980BF0DFFFC9
:10547000011C50460BF0C4FF391C824609980BF002
:10548000D6FF011C50460BF0BBFF311C824625980D
:105490000BF0CDFF291C83462C980BF0C8FF011C94
:1054A00058460BF0ADFF059983461E980BF0BFFFE1
:1054B000011C58460BF0A4FF011C50460BF0A0FF46
:1054C0004946E06011980BF0B2FF049982461898A3
:1054D0000BF0ADFF011C50460BF092FF391C8246C9
:1054E0000A980BF0A4FF011C50460BF089FF311CF9
:1054F000824626980BF09BFF291C83462D980BF0C3
:1055000096FF011C58460BF07BFF059983461F98B8
:105510000BF08DFF011C58460BF072FF011C50462A
:105520000BF06EFF4946206112980BF080FF049942
:10553000824619980BF07BFF011C50460BF060FF70
:10554000391C82460B980BF072FF011C50460BF081
:1055500057FF311C824627980BF069FF291C8346B0
:105560002E980BF064FF011C58460BF049FF05997B
:10557000834620980BF05BFF011C58460BF040FF60
:10558000011C50460BF03CFF4946606113980BF03C
:105590004EFF049981461A980BF049FF011C4846BA
:1055A0000BF02EFF391C81460C980BF040FF011CBC
:1055B00048460BF025FF311C071C28980BF037FFDD
:1055C000291C061C2F980BF032FF011C301C0BF01D
:1055D00017FF0599051C21980BF029FF011C281CB9
:1055E0000BF00EFF011C381C0BF00AFF18239C4621
:1055F000FFABA06114331C34E044A34200D08BE61F
:10560000309BA2AD99463C93C4234C46C8464B44BC
:10561000089307944246D268434641469146424623
:105620009E694C68096892685F691B690491301C27
:10563000FD99069305920BF0FAFEF6998246381C06
:105640000BF0F5FE011C50460BF0DAFEEF99824696
:1056500006980BF0ECFEE899834648460BF0E7FE0F
:10566000011C58460BF0CCFE011C50460BF0C8FE46
:10567000E199824605980BF0DAFEDA998346201C00
:105680000BF0D5FE011C58460BF0BAFED3998346A9
:1056900004980BF0CCFE011C58460BF0B1FE011C27
:1056A00050460BF0ADFE011C28680BF0A6FE2860EA
:1056B000FE99301C0BF0BBFEF7998246381C0BF0AC
:1056C000B6FE011C50460BF09BFEF09982460698F0
:1056D0000BF0ADFEE999834648460BF0A8FE011C8D
:1056E00058460BF08DFE011C50460BF089FEE299E6
:1056F000824605980BF09BFEDB998346201C0BF03D
:1057000096FE011C58460BF07BFED4998346049804
:105710000BF08DFE011C58460BF072FE011C50462A
:105720000BF06EFE011C68680BF067FEFF99686065
:10573000301C0BF07CFEF8998246381C0BF077FE8B
:10574000011C50460BF05CFEF199824606980BF066
:105750006EFEEA99834648460BF069FE011C5846E6
:105760000BF04EFE011C50460BF04AFEE3998246B8
:1057700005980BF05CFEDC998346201C0BF057FE6D
:10578000011C58460BF03CFED599834604980BF05B
:105790004EFE011C58460BF033FE011C50460BF028
:1057A0002FFE011CA8680BF028FEFFAB5968A8600B
:1057B000301C04330BF03BFEF9998246381C0BF089
:1057C00036FE011C50460BF01BFEF29982460698ED
:1057D0000BF02DFEEB99834648460BF028FE011C8A
:1057E00058460BF00DFE011C50460BF009FEE499E3
:1057F000824605980BF01BFEDD998346201C0BF0BA
:1058000016FE011C58460BF0FBFDD6998346049802
:105810000BF00DFE011C58460BF0F2FD011C50462A
:105820000BF0EEFD011CE8680BF0E7FDFFAB99689B
:10583000E860301C08330BF0FAFDFA998246381CF8
:105840000BF0F5FD011C50460BF0DAFDF399824692
:1058500006980BF0ECFDEC99834648460BF0E7FD0B
:10586000011C58460BF0CCFD011C50460BF0C8FD46
:10587000E599824605980BF0DAFDDE998346201CF7
:105880000BF0D5FD011C58460BF0BAFDD7998346A5
:1058900004980BF0CCFD011C58460BF0B1FD011C27
:1058A00050460BF0ADFD011C28690BF0A6FDFFABC7
:1058B000D9682861301C0C330BF0B9FDFB99824686
:1058C000381C0BF0B4FD011C50460BF099FDF49907
:1058D000824606980BF0ABFDED99834648460BF0E7
:1058E000A6FD011C58460BF08BFD011C50460BF029
:1058F00087FDE699824605980BF099FDDF9983466E
:10590000201C0BF094FD011C58460BF079FDD89932
:10591000834604980BF08BFD011C58460BF070FD7C
:10592000011C50460BF06CFD011C68690BF065FD15
:10593000EE99686148460BF07AFDF5998146069824
:105940000BF075FD011C48460BF05AFDFC99814691
:10595000381C0BF06CFDFFAB1969071C301C1033B1
:105960000BF065FD011C381C0BF04AFD011C48467C
:105970000BF046FDE099061C201C0BF058FDE79942
:10598000041C05980BF053FD011C201C0BF038FD86
:10599000D999041C04980BF04AFD011C201C0BF043
:1059A0002FFD011C301C0BF02BFD011CA8690BF016
:1059B00024FD1C239C46089BE044A8611C359845A7
:1059C00000D027E6079BA29A99461A60A39A5A60CC
:1059D000A49A9A60A59ADA60A69A1A61A79A5A615F
:1059E000A89A9A61A99ADA61AA9A1A62AB9A5A623B
:1059F000AC9A9A62AD9ADA62AE9A1A63AF9A5A6317
:105A0000B09A9A63B19ADA63B29A1A64B39A5A64F2
:105A1000B49A9A64B59ADA64B69A1A65B79A5A65CE
:105A2000B89A9A65B99ADA65BA9A1A66BB9A5A66AA
:105A3000BC9A9A66BD9ADA66BE9A1A67BF9A5A6786
:105A4000C09A9A67C19ADA674A468023C299D150B0
:105A5000C3990433D150C4990433D150C599043348
:105A6000D150C6990433D150C7990433D150C89945
:105A70000433D150C9990433D150CA990433D15059
:105A8000CB990433D150CC990433D150CD99043300
:105A9000D150CE990433D150CF990433D150D099FD
:105AA0000433D150D1990433D150D2990433D15019
:105AB0003AAA9446504BA2AA63441B6813CB13C264
:105AC0004E4BD3AC63441B6807CB07C43A9B3B9D4A
:105AD00000934B4B28006344A2A91B68D3AAFDF78F
