:020000041000EA
:1000000000B5324B212058609868022188439860DF
:10001000D860186158612E4B002199600221596106
:100020000121F02299502B49196001219960352056
:1000300000F044F80222904214D00621196600F024
:1000400034F8196E01211966002018661A6600F04E
:100050002CF8196E196E196E052000F02FF8012189
:100060000842F9D1002199601B49196000215960AB
:100070001A491B48016001219960EB211966A021F2
:10008000196600F012F800219960164914480160C1
:100090000121996001BC002800D000471248134993
:1000A000086003C880F30888084703B5996A0420EC
:1000B0000142FBD001200142F8D103BD02B5186610
:1000C0001866FFF7F2FF186E186E02BD00000240BE
:1000D000000000180000070000035F00212200005C
:1000E000F4000018222000A00001001008ED00E03C
:1000F00000000000000000000000000074B24E7A12
:1001000000200420F7010010C3010010C5010010F9
:10011000C1010010C1010010C1010010C101001097
:10012000C1010010C1010010C1010010C701001081
:10013000C1010010C1010010C9010010CB01001065
:10014000CD010010CD010010CD010010CD01001037
:10015000CD010010CD010010CD010010CD01001027
:10016000CD010010CD010010CD010010CD01001017
:10017000CD010010CD010010CD010010CD01001007
:10018000CD010010CD010010CD010010CD010010F7
:10019000CD010010CD010010CD010010CD010010E7
:1001A000CD010010CD010010CD010010CD010010D7
:1001B000CD010010CD010010CD010010CD010010C7
:1001C00000BE00BE00BE00BE00BE00BEEFF3058054
:1001D000103800BEF2EB8871FC6B05101C6C05102A
:1001E0003402001090A31AE700201F49086006C8D7
:1001F00081F3088810471D48006800282FD10DA4FE
:100200000ECC002902D000F012F8F9E71849194A7B
:10021000002000E001C19142FCD1174988471749ED
:1002200088471749884700BEFDE701C901C29A42C5
:10023000FBD370471C6C0510C0000020202D00204F
:100240007C98051000000420000004207C98051014
:10025000001004200010042000000000704709482E
:100260000FF0D6FC0047000008ED00E0000000D0D1
:10027000202D00200C5D032005E400105503001024
:1002800039E500105756000006005250ABB36053DA
:10029000D0C7041006005250861C0302E0C70410A9
:1002A000060052505422A29DECC704100500525083
:1002B000DE65F4687C980510F8B5C0460448054B27
:1002C00010B5834203D0044B002B00D0984710BDDB
:1002D000202D0020202D00200000000006480749A6
:1002E000091A8B10C90FC91810B5491003D0044B57
:1002F000002B00D0984710BD202D0020202D00207D
:100300000000000010B5074C2378002B09D1FFF73F
:10031000D5FF054B002B02D0044800E000BF0123AD
:10032000237010BD283200200000000058C20410C5
:10033000054B10B5002B03D00449054800E000BF71
:10034000FFF7CCFF10BDC046000000002C3200209B
:1003500058C2041070B519200CF088F8D023802200
:100360001B0692045A6211F0CBFC00F04BF807F028
:1003700095FE09F0FDFC08F059F902F0E1FB00F0F0
:100380003DF90BF05BF800220524144B1A7007F0BE
:1003900083FA134D013C2100280011F0A5FCFA203E
:1003A00080000CF073FE002CF4D10A2011F0FCFA4E
:1003B000012200210B480CF031FB0B4813F050FEDA
:1003C00001220A4B0A4C1A702378012BFCD109F048
:1003D0008BFE2378012BFAD0F6E7C046EE5C0320B3
:1003E00058C20410F45B03202DA30010ED5C032021
:1003F000F25C032010B5024814F05AF910BDC04653
:10040000543B0320092370B586B00593043304934D
:10041000023B0393013B0293023B324D324C01936A
:10042000324B22003249334800932B0006F0F2FE93
:10043000142006F0EBFEFA2080000CF027FE2E4E72
:1004400021003200280007F0FDF83378682B08D02F
:100450002A4C200011F0F4FAFA2080000CF016FE6D
:10046000F7E773783D2BF3D101222100280007F034
:100470000DF9234E32002100280007F041F93378AE
:10048000002BF7D101222100280006F0BDFF012139
:10049000200006F09BFF0321200006F02DFF032122
:1004A000280007F057F81321200007F097F91221D0
:1004B000200007F0D1F90021200007F0AFF9032157
:1004C000200007F039F90221200007F051F95521E9
:1004D000200006F02FFF1821280006F0D5FF06B0F7
:1004E00070BDC0460C220320AC33002040420F00F8
:1004F0009C20002094200020A45C03206CC20410E7
:10050000075D0320F0B5C646334C344D344E22000F
:100510002900300000B507F0A7F86378DB439B079C
:1005200020D023781B0702D480BCB846F0BD2D4CE8
:1005300006220021200011F005F92100300007F00B
:1005400063F80023E05E06F0CDFE274D286002230D
:10055000E05E06F0C7FE68600423E05E06F0C2FEBF
:10056000A860E1E7214B062298461800002111F00F
:10057000E9F81F4F06220021380011F0E3F8414648
:10058000280007F023F83900280007F001F8434657
:100590000020185E06F092FE4346164D28600220A9
:1005A000185E06F08BFE434668600420185E06F075
:1005B00085FEA8600023F85E06F08AFE0E4D2860D6
:1005C0000223F85E06F084FE68600423F85E06F0FD
:1005D0007FFEA860A5E7C046E8510320AC330020A9
:1005E0000C22032064410320C4460320544103200D
:1005F0005C410320D03F0320F03F0320F0B5C64606
:1006000000B511F07DFB244924480DF033FE032191
:100610001A200BF0FBFE03211B200BF0F7FE00223B
:1006200001211A200BF00AFF002201211B200BF0F0
:1006300005FF1B480CF02AFD1A4C1B4E23781B4D5E
:10064000DB070ED41A4B01279846210030880BF0A7
:10065000E5FB4346287018680CF018FD23781F420C
:10066000F3D030880BF0B8F90221287030880BF0F5
:1006700009FB1421287030880BF03CFA14212870F3
:1006800030880BF0A5FB287030880BF009FA287031
:1006900080BCB846F0BDC046801A0600B4210020D8
:1006A000B80B0000085D0320A4200020F55C0320A7
:1006B000A8200020F0B55746DE464E464546E0B538
:1006C0008BB008919246190005900993DA1703231D
:1006D0008C46134063449B109B009846002B00DC23
:1006E00090E05246159B00249B000193149B9B1A9B
:1006F000159A9B1A089A9B00029353681268190175
:1007000094460491069251469A00039252468D00F7
:100710000021013A92000792002289465900DE002A
:10072000CB189B009B461300424665440092019AF9
:1007300094469C44039B1A199F195346002B1EDDB7
:10074000069B059819196346804600989B00434410
:1007500080460094086818600098081A845804318C
:100760005C6084599C60C059D86010338D42F1D1CF
:1007700043460799009363468C4604339C44042106
:10078000029B5A4463448C461400049A3E00E144A0
:100790009446009A5E4465444A45C8DC1A00009BB2
:1007A0009846099B434526DD1499159C089B0D1B13
:1007B000514609CB6D1A00291DDD41469E004B4371
:1007C0009B00C01853469C00059B47469C46099BCE
:1007D000AB469846159B994600234A4491006144D4
:1007E000C558CD5004339C42FAD1524401375A4483
:1007F0008019B845F0D10BB0F0BCBB46B246A94653
:10080000A046F0BD0022CCE7F0B54746CE4680B505
:100810001F00002B1DDD002A1BDD9300C0180B6894
:10082000002498464B689100D200494252428C46BF
:1008300091469B00614645182900A2004244166873
:10084000D21840C18142FAD14A460134A81AA742BF
:10085000F0D1C0BCB946B046F0BDC046F0B5DE46EA
:1008600057464E4645460023E0B51360836887B07F
:100870009A46059200230268052693460093013BA1
:10088000039002910493052355469B1B98465D43B4
:100890005B46002B00D18DE14544AD005D442B68E3
:1008A0005C006B6864085F007F08391C381C10F01E
:1008B0000AFD002800D0DFE0211C381C10F0FEFCEF
:1008C000002800D0DFE00027731C9A46022B53D982
:1008D000AB685B005B08191C181C994610F0F3FC10
:1008E000002800D046E14846211C10F0E7FC002813
:1008F00001D04C4602275346032B3DD0EB685B00EA
:100900005B08191C181C994610F0DDFC002800D06B
:1009100038E14846211C10F0D1FC002801D04C469B
:1009200003275346042B27D02B695B005B08191C57
:10093000181C994610F0C7FC002800D02AE149464F
:10094000201C10F0ADFC002801D04C460427534673
:10095000052B11D06D696D006D08291C281C10F045
:10096000B2FC002800D01DE1291C201C10F098FCCE
:10097000002801D005272C1C029B009A4744002127
:100980009F50201C10F084FC002800D17EE0049BC6
:10099000013300D1E3E006239B1B45460193039BF3
:1009A0009B689A465D4306239F1B53469B009946CE
:1009B000019B52461C005443009A7F199446A5009F
:1009C00065449C460023BF005F44B8461F00644452
:1009D000A4005D445C4443462868196810F029FC73
:1009E000011C206810F00BFC2060012E2DD943461D
:1009F0002868596810F01DFC011C606810F0FFFBAE
:100A00006060022E21D043462968986810F011FCDE
:100A1000011CA06810F0F3FBA060032E15D0434624
:100A20002968D86810F005FC011CE06810F0E7FBAD
:100A3000E060052E09D143462968186910F0F9FBDA
:100A4000011C206910F0DBFB206101374D444C4450
:100A5000BE42C0D1009B013E04330093019B052B95
:100A600000D010E71A00029B5A6107B0F0BCBB46E9
:100A7000B246A946A046F0BD211C201C10F023FC64
:100A8000002800D018E73C1C01271DE7474530D05F
:100A900059465C460098BB005B4409581D68039AA0
:100AA00092682550196001009200594489189B18DA
:100AB00008681C680C60186089189B1808681C6816
:100AC0000C60186089189B1808681C680C60186016
:100AD00089189B1808681C680C60186089189B1896
:100AE00018680A6808601A60059A13680193013350
:100AF00013604546039B5A469B685D439A4606230E
:100B00009B1B0193EC1843465B199B009F58A40064
:100B10005C442068391C10F078FB2060012E00D85E
:100B200041E76068391C10F070FB6060022E00D154
:100B300039E7A068391C10F068FBA060032E00D1D3
:100B400031E7E068391C10F060FBE060042E00D152
:100B500029E72069391C10F058FB206123E70623A0
:100B600045469B1B0193039B9B689A465D43434606
:100B7000049318E7211C201C10F0A5FB002800D1CD
:100B8000B7E6B0E6211C201C10F09DFB002800D128
:100B9000C5E6BEE6211C201C10F095FB002800D104
:100BA000D3E6CCE6211C201C10F08DFB002800D1E0
:100BB000E0E6D9E61B68FFDEF0B55746DE464E4656
:100BC0004546E0B599B01493249B8246259C26980F
:100BD0005D1C00D1229B651C00D1229C239DEE1739
:100BE00003253540239EB4466544AD10AF0007256C
:100BF000229E0E97AE4335000096149E002E00DC18
:100C000088E29B001693230110930301D3181793D6
:100C10006B1EDB0801330391D9015B010F93A30025
:100C20007C43201880001193131815930023D3469A
:100C3000139108930E9B002B00DCC2E10F9A039BDB
:100C4000944663441293179BD84601930023029362
:100C50000298434601000CCB089C5943A4466144CA
:100C6000890051180991411C594361448900511868
:100C70000A91811C59436144890051180B91C11C90
:100C80004B4363449B00D318019E0C93009B34009C
:100C9000002B00DC45E2039B0025994600234C46CF
:100CA000AA46AB46A946069504952F1C05950795BF
:100CB0000D9325683168281C10F0BBFA594610F0D6
:100CC000A1FA71688346281C10F0B3FA514610F05F
:100CD00099FAB1688246281C10F0ABFA079910F017
:100CE00091FAF1680790281C10F0A3FA059910F00A
:100CF00089FA059065683169281C10F09AFA391C48
:100D000010F080FA7169071C281C10F092FA0499FF
:100D100010F078FAB1690490281C10F08AFA06994C
:100D200010F070FAF1690690281C10F082FA49461A
:100D300010F068FA8146A568316A281C10F079FA2B
:100D4000594610F05FFA716A8346281C10F071FA58
:100D5000514610F057FAB16A8246281C10F069FA21
:100D6000079910F04FFAF16A0790281C10F061FA09
:100D7000059910F047FA0590E568316B281C10F0D2
:100D800058FA391C10F03EFA716B071C281C10F041
:100D900050FA049910F036FAB16B0490281C10F048
:100DA00048FA069910F02EFAF16B0690281C10F004
:100DB00040FA494610F026FA81462569316C281C14
:100DC00010F037FA594610F01DFA716C8346281C52
:100DD00010F02FFA514610F015FAB16C8246281C1B
:100DE00010F027FA079910F00DFAF16C0790281C03
:100DF00010F01FFA059910F005FA05906569316D3C
:100E0000281C10F016FA391C10F0FCF9716D071C43
:100E1000281C10F00EFA049910F0F4F9B16D04904A
:100E2000281C10F006FA069910F0ECF9F16D069006
:100E3000281C10F0FEF9494610F0E4F98146A56936
:100E4000316E281C10F0F5F9594610F0DBF9716E7F
:100E50008346281C10F0EDF9514610F0D3F9B16E1D
:100E60008246281C10F0E5F9079910F0CBF9F16ED5
:100E70000790281C10F0DDF9059910F0C3F90590D2
:100E8000E569316F281C10F0D4F9391C10F0BAF95B
:100E9000716F071C281C10F0CCF9049910F0B2F9FE
:100EA000B16F0490281C10F0C4F9069910F0AAF94B
:100EB000F16F0690281C10F0BCF9494610F0A2F919
:100EC0008146803620340D9B009A08330D939A4258
:100ED00000DDEEE6139B019C9C46051C5946381C20
:100EE000644410F08FF95146071C049810F08AF9F9
:100EF0000799061C069810F085F905998146281C6B
:100F000010F080F9129B051C9A46229A009B9A4287
:100F100030DDAB460493534620CB2168281C9A460B
:100F200010F087F9011C381C10F06CF96168071C7F
:100F3000281C10F07EF9011C301C10F063F9A16828
:100F4000061C281C10F075F9011C484610F05AF9CF
:100F5000E1688146281C10F06CF9011C584610F01D
:100F600051F98346049B229A0133103404939A4228
:100F7000D1D1051C311C0A9E306810F040F9391C93
:100F8000099F041C386810F03AF9291C0C9D386040
:100F90003460286810F033F90B9E4946041C306811
:100FA00010F02DF91099019A8C46029B624401922F
:100FB0000E9A0433306002932C609A4200DD47E6BB
:100FC000C3460F9A039B944663440E9A0293239B55
:100FD0009246159D934200DC90E05B465C68534668
:100FE0005C43089B2F009C465B461B6864449C4600
:100FF000009BA4006444002B00DC99E00023039FC5
:1010000099463B00A04600262F001C003968206846
:1010100010F00FF9311C10F0F5F8061C79686068C3
:1010200010F007F9311C10F0EDF8061CB968A06843
:1010300010F0FFF8311C10F0E5F8061CF968E068C4
:1010400010F0F7F8311C10F0DDF8061C3969206942
:1010500010F0EFF8311C10F0D5F8061C79696069C2
:1010600010F0E7F8311C10F0CDF8061CB969A06942
:1010700010F0DFF8311C10F0C5F8061CF969E069C2
:1010800010F0D7F8311C10F0BDF8061C20372034C2
:1010900008239C46009BE1444B45B7DC44460F9B2C
:1010A000EF18029B0193229A009B9A4217DD994602
:1010B0000023984643464246F958019B985810F041
:1010C000B8F8011C301C10F09DF8061C01239C464A
:1010D0000333E1449C46229BE0444B45EAD120681F
:1010E000311C10F08CF801239C46119BE2449C4675
:1010F000239B20606544534500D06EE71699039A00
:101100008C46089B62440392149A013308939A42D6
:1011100000D08FE519B0F0BCBB46B246A946A04648
:10112000F0BD0025039BA9469A462E1C2F1CECE619
:10113000039B00260193B6E7F0B557464E46DE46C0
:1011400045468024E0B5B5B006AF3C192060942038
:101150007B63E823AE4E38180160BA63FB181C6845
:101160003378BFF35B8FDB0700D477E2A94D902281
:101170002369BA1813608422A368BA181360802206
:10118000BA1812686D68934202DD8423FB181A6056
:1011900094218423902279180E688C21FB18BA18A8
:1011A00012681B6856435343226879180A60002A64
:1011B00000D180E29B003B660023BB6763687B67CE
:1011C000002B00D163E2B300FB6500233B6798224C
:1011D0000423BA1813609033FB181B68002B19DD29
:1011E0008023E422FB18BA181B6812681900934286
:1011F00000DA4AE2280009010EF064FD0323C21759
:10120000134098221B189B109B00BA181360042BE4
:1012100000DA35E28023FB181968002900DCA9E117
:1012200090207B6B38181A0000687964844642432A
:10123000091A3A616244B9647A609821E422791803
:10124000BA18126809684A43BA619A007A6104328E
:10125000FA61A02201339B00BA181360E423FB1843
:101260001B689B009B460023FB63FB643B64BB66DF
:101270009C227B6CBA1813609022BA1812689342B1
:1012800002DD9C23FB181A609423FB181B68002BBB
:1012900000DC47E19C23FB181A68002A00DC41E1CE
:1012A0009423E021FB181B687918BB659823096813
:1012B000FB188C461B68B86E53439B00BB607B6F6A
:1012C0001100FB6783006344FB6000238C46FB66D0
:1012D000FB620B00B021791839630321013B043A0A
:1012E0008B436044D31A38603B629822BA18BB6DB6
:1012F00012689A46934200DD9246FA68FB6E944665
:101300009B0063447B66FB6B88227B65FB6CBA1891
:101310003B659C23FB181B6813609C23FB181A6811
:101320008823FB181B68D21ABA62A422BA18136069
:10133000042B03DDA4220423BA1813608823FB18AE
:101340003A681B68D21A7A62002B65DDA423BA6B57
:10135000FB189146A8221B68BA18013B98467B6D82
:101360009B0099447B6E1360AC220023BA18136073
:10137000AC23AC22FB181B68BA1801331360434638
:10138000002B2CDDA8230025FB181C684B46266883
:101390005968301C0FF04DFF011C60680FF02FFFE3
:1013A00043466060012B16D04B46301C99680FF005
:1013B00040FF011CA0680FF022FF4346A060022BF3
:1013C00009D04B46301CD9680FF033FF011CE06890
:1013D0000FF015FFE06001355C445545D6D101237F
:1013E0005B429C46A133FB181B68E0449C46A82343
:1013F000A822FB181B68BA1804331360AC23A4227C
:10140000FB18BA181B681268E1449342B0DB03E092
:10141000A4250320683B03208823A422FB18BA18C4
:101420001B681268396B9D1A7B6EBE6A0B60E423E1
:10143000FB181B6891464B609C230196FB181B68A8
:1014400088460093F86F5346FFF734F9002D37DDD7
:1014500041467C6A386D4C440319B86B4A46844651
:10146000786B9B004860A420381802608C203818E4
:10147000006863440B602B0081463963FFF7C4F9B1
:10148000E022FB6EBA181B1914689B00A0463C6B47
:1014900043442360E423FB1819689C236160FB1814
:1014A00004961B6849460393A423FB181A68534605
:1014B0000292019300922B002000FA6FFFF77CFB51
:1014C000882388227969FB188C461B68BA18043B6C
:1014D000F96913603A6D62448C463A657A6E10324F
:1014E0007A667A6D62447A653A6A9A4200D014E765
:1014F0009822BA181268B96D9446FB6A8A1AB969BB
:1015000063448C46BA65B968FA6EFB6262448C46E5
:10151000FA66FA6F6244FA679422BA1812689A421D
:1015200000DDE2E69022BA181268BB6E9446802273
:10153000BA1812686344BB6693421BDA8423FB1813
:101540001B68002B38DC90233969FB188C467A6CB9
:101550001B68D21A7A643A6C62443A64BA6CD31A41
:10156000BB647A68FB6C63449446FB64FB6B634426
:10157000FB637DE68023FA6D9B029A4207D93A6F9E
:10158000002A04D0531E1878101A10F0C3F88023D4
:101590003A6E9B029A4207D9BA6F002A04D0531EB2
:1015A0001878101A10F0B6F8BD462FB0F0BCBB4644
:1015B000B246A946A046F0BDBA6B3B6C92469B0072
:1015C0009A44B023FE18B13B9946BD6CBC6E84238F
:1015D000FB181B68A8469D4200DD9846AC22A3007C
:1015E000BA1813607A6B8C2072609C225344BA182C
:1015F000381831001268006833604346FFF704F979
:10160000E022AC23BA181268FB1894461B688C21A0
:1016100063443360E423FB181B687918736000236C
:1016200004934B46039302939423FB181B683000EA
:1016300001939C23FB181B6800937A6F434609684B
:10164000FFF7BAFA8423FB181B689C46ED1A802327
:10165000FB181B686444A342B9DC74E7300012F045
:1016600025FD364D002800D181E58023DB012B606C
:1016700080231B0330006B60AB6012F033FD76E516
:1016800098220423BA181360C4E51100B2E5802340
:10169000B200FA659B029A423AD813006A461633A2
:1016A000DB08DB00D31A9D4627200F2368449843AC
:1016B000386778678BE59A0080233A669B029A42E6
:1016C0000FD813006A461633DB08DB00D31A9D4699
:1016D00027200F23684498437D33FB18B8671860B0
:1016E0006CE5100010300FF0F7FFB867002800D14C
:1016F00064E50F221023844602409B1ADBB29C440F
:1017000061464A1E13708C23FB18B967196055E5B2
:10171000100010300FF0E0FF3867002800D156E5C8
:101720000F221023844602409B1ADBB29C44614680
:101730004A1E39671370796749E5C046683B032044
:10174000F0B557464E46DE464546E0B5B7B006AF63
:10175000824684207B65F023CB4E38180160BA6343
:10176000FB181C683378BFF35B8FDB0700D49DE266
:10177000C64D23696D683B67A368BB67534501DDB0
:101780005346BB67842179180E6880213A6FBB6F7E
:1017900056435343226879180A60002A00D1B4E204
:1017A0009B003B650023FB666368BB66002B00D192
:1017B00097E2B300FB6400237B6688220423BA18F7
:1017C00013608033FB181B68002B16DDEC23FB181D
:1017D0001B6851469A4500DA7FE2280009010EF0A5
:1017E00071FA0323C217134088221B189B109B0019
:1017F000BA181360042B00DA6AE25346002B00DCAF
:1018000032E27A6D386F1100434259430B00B962DE
:1018100051460C1A110062431B1A9B00BA647B608C
:101820000A000B0051464B43B96B53448C46E821E8
:101830009B006344FB637918830009685B423B604B
:1018400053468C469B006344EC21BB658823791882
:10185000FB1809681B687C674B4390213B61930030
:101860005B4279180B60043BBB609B00FB60D34379
:1018700094229B00BA181360EC23A822FB181B6863
:10188000BA189B001360544603008C22BA181360E8
:10189000A34200DD14608423FB181B68002B00DCCE
:1018A00076E18C23FB181A68002A00DC70E184239F
:1018B000FB181B68B96D7B648823FB181B685343B6
:1018C0009B00FB61BB6EFB659300CB1A3B62002360
:1018D000B8213B667B63A31A7918FB621300396356
:1018E0000321013B043A8B43D31A7B61AC227B6C0E
:1018F000BA1813608822BA181268934202DDAC232A
:10190000FB181A603A6A3B6E94469B009C44624600
:101910007A62BA6D944698226344BA181360FB6BDE
:101920003B648C23FB181B68FB679C22FB6FBA1877
:101930001360042B03DD9C220423BA181360FA6F92
:10194000FB6A94466344BB61002A00DCA0E09C2350
:10195000396CA0208A46FB181B6838185A1E93461B
:10196000BA685B42524402607A6D9B1A9B009A44AB
:101970000423A4225B4299460023BA181360A023D3
:10198000FE20FB181B68800519680FF03EFCB4238D
:10199000FB181860A423FB181B685A46DB439B1AEC
:1019A0009822BA18126800269446B0229C009B0028
:1019B0005B42BA1864441360B023FB181B684A46A4
:1019C0009846A04443469958B423FB1818680FF072
:1019D00030FC43464A4698505B46051C002B22DDEE
:1019E000534619680FF025FC011C20680FF007FC16
:1019F0005B462060012B16D05346281C59680FF017
:101A000018FC011C60680FF0FAFB5B466060022B5B
:101A100009D05346281C99680FF00BFC011CA068E4
:101A20000FF0EDFBA060A823FB181B6801369C4655
:101A3000AC23FB181B6864449E42BDD1A423A4229E
:101A4000FB181B68BA18013313600122942152421B
:101A5000944679180968E3448C46A021A132BA184B
:101A60001268791862440A60042252429446943201
:101A7000BA181268E14494469C22BA181268E244EB
:101A8000934200DA7BE703E0A4250320683B0320B0
:101A9000E8219C2279180968BA188C46FB6F1268F5
:101AA000396B9C1ABB699D1A3B6E5B199B006344A2
:101AB0000B60EC23FB181B684B608C230194FB1814
:101AC0001B680093AC23FB181B68F86DFEF7F2FD52
:101AD000002C30DD7A6DF96A13008C466B433D6B48
:101AE000B96B80206A609C2263448C463818066873
:101AF0009B00BA181268634429002B603000230051
:101B00009046FEF781FEEC2228008C237D6ABA18ED
:101B100005601568FB18456004941D68AC224346B7
:101B200003950293BA1812680093019223003100C2
:101B3000FA6DFFF741F898229821BA1812687918BF
:101B4000103A0A60F9683A6C8C46FB6F62443A645A
:101B50007A69043BFB679A4200D0E6E68822BA180D
:101B60001268796C94467B6B8A1AF96963448C46D7
:101B70007A643969FA6D7B6362448C46FA653A6E21
:101B800062443A668422BA1812689A4200DDADE6D1
:101B90007B6F1C1E68DDBB6F002B00DCFEE7BA6BA1
:101BA000BB6C93469B009B4400239946B833FE18B8
:101BB000B93B9A4623004C4699467D6FBB6FA846B9
:101BC0009D4200DD9846B422A300BA1813607A6DD6
:101BD000802072608C225B44BA1838183100126879
:101BE000006833604346FEF70FFEE822B423BA18BC
:101BF0001268FB1894461B68802163443360EC2311
:101C0000FB181B68791873600023049353460393F1
:101C100002938423FB181B68300001938C23FB186C
:101C20001B680093BA6E43460968FEF7C5FFBB6F99
:101C30009C46ED1A7B6F6444A342BFDCBA6ABB6C5E
:101C400094467A6863449446BB643A68FB6B4C469E
:101C500063449446FB63BB6D3A6F6344BB657B6F23
:101C60009B1A7B67130010E68023FA6C9B029A4252
:101C700007D97A6E002A04D0531E1878101A0FF074
:101C800049FD80233A6D9B029A4207D9FA6E002AD9
:101C900004D0531E1878101A0FF03CFDBD4631B029
:101CA000F0BCBB46B246A946A046F0BD300012F0DB
:101CB000FDF9374D002800D15BE58023DB012B6067
:101CC00080231B0330006B60AB6012F00BFA50E511
:101CD00088220423BA1813608FE5EC23FB181968D7
:101CE0007BE58023B200FA649B029A423AD8130043
:101CF0006A461633DB08DB00D31A9D4627200F23E4
:101D0000684498437866B86657E59A0080233A6538
:101D10009B029A420FD813006A461633DB08DB0099
:101D2000D31A9D4627200F23684498437133FB182C
:101D3000F866186038E5100010300FF0CDFCF8663A
:101D4000002800D130E50F221023844602409B1A60
:101D5000DBB29C4461464A1E13708023FB18F9666F
:101D6000196021E5100010300FF0B6FC78660028ED
:101D700000D122E50F221023844602409B1ADBB2D9
:101D80009C4461464A1E79661370B96615E5C046E3
:101D9000683B032030B587B00D4B02AD00951A6843
:101DA000694602929A880400AA809B796A46AB71C0
:101DB000072301930023D3732FF00AF90098A84258
:101DC00003D0029901310FF0D9FC200007B030BDDB
:101DD00080C20410F0B5DE4657464E464546E0B593
:101DE0001F1CFE4B8FB01D68FD4B079018680A91B1
:101DF000011C00920FF006FAFA4B19680FF019FA5D
:101E0000291C0FF016FAF84B19680FF0FEF9011CA7
:101E1000FE2080050FF0F3F9F44B81461860F44B77
:101E20001E68301C0FF0B8FAF24B041C1B68301C03
:101E300098460FF0C3FAF04B8346211C40461E68BB
:101E40000FF0F7F959468246301C0FF0F2F9011CE9
:101E500050460FF0D7F9291C0FF0EBF9E74B8246FB
:101E6000186080231B0643441800391C0FF0E1F969
:101E700000998046301C0FF0DCF9011C40460FF041
:101E8000C1F9DF4B80461968201C0FF0D2F9189970
:101E90000FF0CFF9011C40460FF0B4F9291C0FF0E8
:101EA000C8F9D84B1899186080231B068046F01893
:101EB0000FF0BFF9291C0FF0BCF9D34B009018604C
:101EC000391C281C0FF0B5F9211C0FF09EF9CF4CDE
:101ED000CF4B2668CF4C18602768CF4B83461968D4
:101EE000381C0FF0A6F9CD4C311C2568041C48465F
:101EF0000FF09FF9011C201C0FF084F9C84B041C43
:101F00001968281C0FF095F9011C201C0FF07AF9B4
:101F100041460FF077F9C34B0C901860C24B381C48
:101F20001C68C24B19680FF084F9211C8046301CD4
:101F30000FF07FF9011C40460FF064F9291C804620
:101F400050460FF076F9011C40460FF05BF90099FE
:101F50000FF058F9B64B08901860B64B301C196852
:101F60000FF067F9B44B061C1968381C0FF061F9C3
:101F7000011C301C0FF046F9B04B061C1968281CD8
:101F80000FF057F9011C301C0FF03CF959460FF0C7
:101F900039F9AB4EAB4B3568186049460990484655
:101FA0000FF047F9291C0FF044F9A74B19680FF0FF
:101FB00029F9A64BA64A186012680D90211C4846C4
:101FC00090460FF036F9291C0FF033F9A14F061C8B
:101FD0003F684846391C00970FF02BF9011C301C54
:101FE0000FF010F95146061C48460FF022F9414601
:101FF0000FF01FF9011C301C0FF004F9964B4146FD
:102000000190186048460FF014F9944B0290186044
:10201000291C201C0FF00DF9914D924E29680FF0EC
:10202000F1F83768051C391C50460FF002F9011C05
:10203000281C0FF0E7F8061C011C48460FF0F9F8C1
:10204000894B8A4A18608A4B12681B680390059373
:102050000492884D50462D68291C06950FF0E9F82A
:102060004146051C201C0FF0E4F8834B19680FF063
:10207000C9F8291C0FF0C6F8311C8346201C0FF04C
:10208000D8F80099061C201C0FF0D3F8011C301C56
:102090000FF0B8F805990FF0B5F8049B061C191C51
:1020A000504698460FF0C5F8011C301C0FF0AAF8F6
:1020B0005946061C50460FF0BCF8011C301C0FF0AE
:1020C000A1F86E4B5E4619680FF09CF86C4B0090BF
:1020D00018606C4B391C1E6048460FF0AAF86A4B1A
:1020E00004901860391C201C0FF0A3F841460FF033
:1020F00089F8291C0FF086F8644B041C1860644BA7
:10210000196806980FF07EF8624B0899071C186052
:1021100007980FF074F8604B0999069018600A98B8
:102120000FF06DF85D4B079018605D4B05981968CE
:102130000FF068F85B4B061C186058465A4B059721
:1021400018605A4B381C1C60594B19680FF05AF82C
:10215000584B071C1860011C301C0FF06AF8211C3A
:10216000051C58460FF065F8011C281C0FF047F8B5
:10217000051C011C381C0FF048F84F4B071C186059
:1021800080231B065B44291C18000FF03EF84B4BC4
:102190008146186080231B06E018291C0FF035F8D3
:1021A000474B82461860291C301C0FF02EF8454B17
:1021B00080461860391C01980A970FF03AF8029E81
:1021C0005146051C301C0FF034F8011C281C0FF080
:1021D00019F83D4B071C1860494677E0D0200020D5
:1021E000AC20002084230320D82000200C420320B0
:1021F00014210020182100201C2100201C42032053
:10220000CC2000204C5C0320505C0320B023032032
:10221000545C0320B423032010420320B82303207E
:1022200014420320BC23032018420320C4200020B2
:10223000C02303202042032024420320C820002082
:10224000DC200020C4230320F4200020E020002014
:10225000E8500320E0500320E4500320EC5003201A
:10226000F050032000510320F450032008510320B4
:10227000E4200020EC200020F8500320F82000206B
:10228000E8200020FC500320045103200C510320BF
:10229000FC200020F0200020F84103200042032011
:1022A00000210020B85B0320BC5B0320C05B03203F
:1022B00004210020C45B0320C85B0320CC5B032007
:1022C000D05B0320D45B0320C033002001980EF0C4
:1022D000B0FF4146051C301C0EF0ABFF011C281C52
:1022E0000EF090FF914B061C0A99186000980EF0B2
:1022F000A0FF5146051C58460EF09BFF011C281CF0
:102300000EF080FF8A4B494618600B9000980EF043
:1023100090FF4146051C58460EF08BFF011C281CFF
:102320000EF070FF834B051C0A991860201C0EF0FC
:1023300080FF51460A9005980EF07BFF011C0A9819
:102340000EF060FF7C4B824618604946201C0EF060
:1023500070FF4146814605980EF06BFF011C484610
:102360000EF050FF754B81461860391C06980EF030
:1023700060FF0C990EF046FF311C804607980EF066
:1023800058FF011C40460EF03DFF6D4B0B99186045
:1023900006980EF04EFF08990EF034FF291C804677
:1023A00007980EF046FF011C40460EF02BFF654BD0
:1023B0005146186006980EF03CFF09990EF022FF76
:1023C0004946804607980EF034FF011C40460EF047
:1023D00019FF5D4B391C186003980EF02AFF011C91
:1023E0000D980EF00CFF311C804604980EF021FF72
:1023F000011C40460EF003FF544B391C1860009836
:102400000EF017FF011C01980EF0F9FE311C8046FA
:10241000201C0EF00EFF011C40460EF0F0FE4C4B4F
:10242000391C186058460EF004FF011C02980EF08B
:10243000E6FE059B071C311C181C98460EF0F9FEA1
:10244000011C381C0EF0DBFE424B0B991860FE207D
:1024500080050EF0D4FE061C011C03980EF0E9FE68
:10246000291C071C04980EF0E4FE011C381C0EF019
:10247000C6FE394B311C186000980EF0DAFE291C9C
:10248000071C201C0EF0D5FE011C381C0EF0B7FEF8
:10249000324B311C186058460EF0CBFE291C061C2E
:1024A00040460EF0C6FE011C301C0EF0A8FE2C4B60
:1024B00049461860FE2080050EF0A1FE051C011C97
:1024C00004980EF0B6FE5146061C03980EF0B1FEBD
:1024D000011C301C0EF093FE224B291C1860201C9E
:1024E0000EF0A7FE5146041C00980EF0A2FE011C3F
:1024F000201C0EF084FE1C4B291C186040460EF078
:1025000098FE5146041C58460EF093FE011C201CF8
:102510000EF075FE154B1860FE2080050FB0F0BC64
:10252000BB46B246A946A046F0BDC046C433002013
:10253000C8330020CC330020D0330020D433002017
:10254000B0230320B4230320B8230320DC20002081
:10255000E0500320E8500320F0500320E420002046
:10256000F85003200051032008510320EC200020E4
:10257000F0B5DE4657464E464546E24BE0B518609C
:10258000E14B0D1C1B68E14C98464146E04BE4686A
:102590001960DD4989B04968069059608946DB4B6E
:1025A000DA491F684E68DB4B89681F605E6099607E
:1025B000DC60D94B05949A6858681C6802920491B3
:1025C0000190DB68211C404603930EF032FE029915
:1025D000824648460EF02DFE011C50460EF012FEBB
:1025E000CE4B82461968281C9B460EF022FE011C29
:1025F00050460EF007FECA4B0199186007904046FE
:102600009A460EF016FE0399804648460EF011FEDB
:10261000011C40460EF0F6FD5B4680465968281CBA
:102620000EF007FE011C40460EF0ECFD55468346B9
:102630006860211C381C0EF0FCFD029A051C111C60
:10264000301C90460EF0F5FD011C281C0EF0DAFD42
:1026500001998146381C0EF0ECFD039F051C391CC6
:10266000301C0EF0E6FD011C281C0EF0CBFD211CD9
:10267000824604980EF0DDFD4146051C05980EF0DB
:10268000D8FD011C281C0EF0BDFD46460199804670
:1026900004980EF0CEFD391C051C05980EF0C9FDFE
:1026A000011C281C0EF0AEFD4946071C201C0EF034
:1026B000C0FD4146051C301C0EF0BBFD011C281C52
:1026C0000EF0A0FD974E31680EF09CFD964D5146E0
:1026D00004902860201C0EF0ACFD391C041C0298EC
:1026E0000EF0A7FD011C201C0EF08CFD71680EF091
:1026F00089FD49460290686001980EF09AFD039AA0
:102700004146041C101C91460EF093FD011C201C38
:102710000EF078FDB1680EF075FD5146041CA860FE
:1027200001980EF086FD391C804648460EF081FD6A
:10273000011C40460EF066FDF1680EF063FDE86096
:102740007A4D071C2E680498311C0EF072FD6D68DE
:102750008046291C381C01970EF06BFD291C82460F
:1027600002980EF066FD41460EF04CFD311C0EF055
:1027700060FD311C071C201C0EF05BFD51460EF065
:1027800041FD291C0EF055FD011C381C0EF03AFDD0
:10279000674B19680EF036FD664B071C1860291C44
:1027A000201C0EF046FD41460EF02CFD391C0EF0AB
:1027B0002CFD61498046894608600298311C0EF064
:1027C00038FD51460EF01EFD391C0EF01EFD494627
:1027D000079B071C4860181C311C9A460EF029FD07
:1027E000291C814658460EF024FD011C48460EF077
:1027F00009FD011C06980EF002FD414681460EF0CF
:1028000018FD51460EF0FEFC3F4A391C1060484648
:102810000EF00FFD59460EF0F5FC3B4A8146506024
:10282000464A311C934640460EF003FD5A46011CB1
:1028300010680EF0E4FC311C8246381C0EF0F9FCE6
:102840005A46011C50680EF0DAFC291C061C404652
:102850000EF0EFFC5A46011C90680EF0D0FC291CCB
:102860008046381C0EF0E5FC5A46011CD0680EF07C
:10287000C6FC5146051C04980EF0DBFC029B414649
:10288000071C181C9B460EF0D4FC011C381C0EF0D3
:10289000B9FC1E4A311C106004980EF0CAFC291CB9
:1028A000071C58460EF0C5FC011C381C0EF0AAFC93
:1028B000164B51465860201C0EF0BBFC019B414654
:1028C000071C181C98460EF0B4FC011C381C0EF0B6
:1028D00099FC0E4B311C9860201C0EF0AAFC291CA0
:1028E000041C40460EF0A5FC011C201C0EF08AFCC6
:1028F000064BD860484609B0F0BCBB46B246A94674
:10290000A046F0BDD45C032094500320602E00202C
:1029100068460320A02E0020C02E00204441032042
:10292000A4500320B02D0020802E0020B85003209A
:102930005023032058460320B8330020E02E002007
:10294000F0B5DE4657464E464546E0B5674B83B088
:1029500059689A460EF053FC654B051C1860654B90
:102960001B689B46644B59461C680EF04BFC211CAF
:102970000EF05FFC614B061C1868011C0EF042FC57
:10298000011C301C0EF041FC5D4E31680EF03AFC2B
:102990005C4B009030601868011C0EF033FC5A4B01
:1029A000061C1A68111C91460EF043FC8046011C5F
:1029B000201C0EF027FC211C071C40460EF01FFCBB
:1029C000524A116890460EF034FC391C0EF01DFC82
:1029D0004946019048460EF015FC59468146281C90
:1029E0000EF00DFC011C48460EF023FC391C0EF0C5
:1029F0000CFC011C01980EF005FC42460099106089
:102A0000071C281C0EF0FEFB391C0EF0FBFB404B94
:102A100019680EF00EFC3F4B18603F4B1860534690
:102A200019680EF0ECFB3D4B051C18603C4B1B6815
:102A3000191C9A460EF0E6FB211C0EF0FAFB394BEE
:102A400080461868011C0EF0DDFB011C40460EF0AC
:102A5000DCFB354B994619680EF0D4FB4B461860E9
:102A6000324B80461B68301C191C99460EF0E1FB66
:102A70008346011C201C0EF0C5FB4946061C484637
:102A80000EF0C0FB51468146281C0EF0B8FB011C1D
:102A900048460EF0CEFB311C0EF0B7FB211C8146E0
:102AA00058460EF0ACFB391C0EF0C3FB311C0EF087
:102AB000ACFB011C48460EF0A5FB1D4B41461860BF
:102AC000041C281C0EF09EFB211C0EF09BFB194BD6
:102AD00019680EF0AEFB184B1860184B186003B065
:102AE000F0BCBB46B246A946A046F0BD94500320B8
:102AF0000442032060460320D4200020B0200020A0
:102B000050460320C0200020E8330020E04103208D
:102B1000B8200020585C0320485C032008420320B2
:102B200064460320B420002054460320EC330020E8
:102B3000E4410320BC2000205C5C0320605C032097
:102B4000F8B5FE250024194BAD051D60DD609C60C5
:102B50005C60174B174F1D60DD609C605C60164B1E
:102B60001E68164B301C19680EF04FFB144B386072
:102B70001D605C60DD609C60124B7C601D605E606F
:102B8000DD609C60104B1C605D60104B1868011C80
:102B90000EF04FFB0E4B0F4A186012680E4B1A6076
:102BA0000E4A9C6012685C60DA60F8BD602E0020FE
:102BB000802E002044410320D4200020D820002073
:102BC000E02E0020C02E0020B8500320102100204D
:102BD0005023032038230320B02D0020342303206A
:102BE000F0B5DE4657464E464546E0B50E00016854
:102BF000C7688946416805698A4681688DB08B46F9
:102C0000416980690793069050681368926805913E
:102C10000A90291C30680B92099308950EF0EFFA80
:102C20000599039070680EF0EAFA0699051CB068E1
:102C30000EF0E5FA80268046360607980EF092FBE5
:102C4000B446039B009001916344180051460EF076
:102C5000F0FA5946061C281C0EF0EBFA011C301C39
:102C60000EF0CDFA391C061C404604970EF0E1FA2E
:102C7000011C301C0EF0C3FA0EF074FB0022684BEE
:102C80000DF097FA009A019B0DF093FA0600484662
:102C90000F000EF067FB02000B0030003900169C9D
:102CA0000DF060FA0DF08AFB4946206003980EF0A3
:102CB000C0FA5946061C40460EF0BBFA011C301CF7
:102CC0000EF0A0FA0499061C281C0EF0B2FA011CA2
:102CD000301C0EF094FA0EF045FB0022504B0DF024
:102CE00068FA009A019B0DF064FA060050460F0046
:102CF0000EF038FB02000B00300039000DF032FA04
:102D00000DF05CFB49466060281C0EF092FA5146BB
:102D1000061C40460EF08DFA011C301C0EF06FFAB6
:102D20000499061C03980EF084FA011C301C0EF066
:102D300069FA0EF017FB0022394B0DF03AFA009AAF
:102D4000019B0DF036FA060058460F000EF00AFB04
:102D500002000B00300039000DF004FA0DF02EFBDC
:102D60004946A06040460EF064FA5146061C281CF5
:102D70000EF05FFA011C301C0EF044FA5946051C97
:102D800003980EF056FA011C281C0EF038FA0EF0CB
:102D9000E9FA0022224B0DF00CFA009A019B0DF08B
:102DA00008FA060004980F000EF0DCFA02000B008F
:102DB000300039000DF0D6F90DF000FB089B0999A1
:102DC000E060181C98460EF034FA079D291C0EF09E
:102DD00030FA011C40460EF012FA059F0A99206154
:102DE000381C0EF026FA291C0EF023FA011C381CA0
:102DF0000EF005FA069E0B996061301C0EF019FA70
:102E0000291C0EF016FA011C301C0EF0F8F9A06116
:102E100000200DB0F0BCBB46B246A946A046F0BDAE
:102E20000000E03FF0B5DE4657464E4645468A462E
:102E30004168E0B58846C768816891B006688946F0
:102E40004046391C141C04930EF0F3F94946051C46
:102E5000301C0EF0EEF90A90011C281C09950EF0AA
:102E6000CEF90EF07FFA02000B000DF07BF9069010
:102E70000791201C02940EF075FA0B00020004006A
:102E80000D00069807990DF094F90DF097FA524647
:102E9000391C106048460EF0CCF983464146301C80
:102EA0000EF0C7F95A460E90011C58460B920EF0D0
:102EB000A9F90EF057FA02000B000DF053F90200C9
:102EC0000B00200029000C920D930DF072F90DF00B
:102ED00075FA5446311C6060301C0EF0AAF9414668
:102EE000041C40460EF0A5F9051C011C201C0EF028
:102EF00086F94946089048460EF09BF9391C8346EE
:102F0000381C0EF096F95946019008980EF077F9A2
:102F100001990EF077F902990F900EF08AF9534655
:102F20004946986040460EF084F9391C8046301CB2
:102F30000EF07FF981461A980EF014FA06001B98DD
:102F40000F000EF00FFA02900391291C201C0EF0C6
:102F500059F959460EF053F901990EF050F90499B8
:102F60000EF067F90EF0FEF904000D0040464946E8
:102F70000EF048F90EF0F6F902000B000DF0F2F831
:102F800032003B000DF015F902000B002000290073
:102F90000DF0E8F8029A039B04000D0006980799CB
:102FA0000DF007F902000B00200029000DF0DAF8FF
:102FB0000DF004FA5346D86004980EF0D3F90400DB
:102FC0000D00404649460EF01AF90EF0CBF902000A
:102FD0000B000DF0C7F822002B00049405950DF0AE
:102FE000E8F804000D00089859460EF00BF9019915
:102FF0000EF005F91A990EF01CF90EF0B3F9020063
:103000000B00200029000DF0ADF8029A039B04008C
:103010000D000C980D990DF0CCF802000B0020006B
:1030200029000DF09FF80DF0C9F953460A9918616F
:1030300009980EF0E7F80EF095F902000B000DF07C
:1030400091F8049A059B0DF0B4F804000D000B985C
:103050000E990EF0D4F80EF085F902000B000DF079
:1030600081F832003B000DF0A4F802000B002000B4
:1030700029000DF077F804000D000F981B990EF051
:10308000D8F80EF06FF902000B00200029000DF0B7
:1030900069F80DF093F953465861002011B0F0BC67
:1030A000BB46B246A946A046F0BDC046F0B50400F6
:1030B000DE4657464E4645460800E0B54568096875
:1030C000AA46856895B0AB46C56846698769109180
:1030D0000E950169556810689268049690461A68C2
:1030E000069711925A689B6812921393FE239B05D0
:1030F000236099460EF083F80EF034F900900191A8
:103100001E980EF02FF906000F000098019900227A
:10311000924B0DF04EF832003B000DF04AF80DF0E6
:103120004DF904990390E061281C0EF068F80EF048
:1031300019F90022894B049005910DF03AF83200FC
:103140003B000DF036F80DF039F90699051CA06327
:1031500040460EF054F80EF005F900227F4B069021
:1031600007910DF026F832003B000DF022F80DF02B
:1031700025F90A90606550460EF0F4F80022784B6D
:10318000089009910DF015F832003B000DF011F890
:103190000DF014F90B90206758460EF0E3F800226A
:1031A0006F4B0C900D910DF004F832003B000DF0C8
:1031B00000F80DF003F98C238246E0500E980EF0D3
:1031C000D1F80022664B0E900F910CF0F2FF320006
:1031D0003B000CF0EEFF0DF0F1F8A8238346E05021
:1031E0000022009801995E4B0CF0E3FF32003B0097
:1031F0000CF0DFFF0DF0E2F84946009060602162BC
:10320000002206980799564B0CF0D3FF32003B0082
:103210000CF0CFFF0DF0D2F8A5658046E063109862
:103220000EF0A0F800224D4B0CF0C3FF32003B0023
:103230000CF0BFFF0DF0C2F859469023051C6067E3
:103240000022E1500C980D99444B0CF0B2FF320073
:103250003B000CF0AEFF0DF0B1F8AC230022E050C3
:10326000049805993E4B0CF0A4FF32003B000CF093
:10327000A0FF0DF0A3F849460A9A83466262009ABD
:10328000A0602164E2650E980F990022334B0CF088
:1032900090FF32003B000CF08CFF0DF08FF8942370
:1032A0000B99A067E5501C33E1504146E160594657
:1032B000A162494621665146039BE1676364089811
:1032C00009990022254B0CF074FF32003B000CF0F2
:1032D00070FF0DF073F89823E0501C33E550002583
:1032E0001E9911982561E562A56465660DF0A1FF40
:1032F000011C48460DF083FF8023E0501C33E5504D
:103300001C33E550343B1E99129865612563E564D2
:10331000A566E5500DF08DFF011C48460DF06FFFCE
:10332000A023E0501C33E550343BA561656325655F
:10333000E566E5501C33E5501E9913980DF079FFB2
:10334000011C48460DF05BFFC023E050002015B083
:10335000F0BCBB46B246A946A046F0BD0000E0BFA7
:103360000000E03FF0B5DE4657464E464546E0B524
:103370009A460B68141C8A689B464B68C9688BB0D8
:103380000500101C8846009301920DF0EBFF02909F
:103390000391201C0DF0E6FFC02306000F000298E9
:1033A000039900221B060CF004FF32003B000CF0D6
:1033B00000FF0DF003F80890286040460DF0D2FFA2
:1033C00002000B000CF0CEFE32003B000CF0F1FED0
:1033D0000CF0F4FF041CA86158460DF0C3FFC02395
:1033E00000221B06049005910CF0E3FE32003B0026
:1033F0000CF0DFFE0CF0E2FF286300980DF0B2FF46
:1034000002000B00069007910CF0ACFE32003B006E
:103410000CF0CFFE0CF0D2FF002190238946A86467
:103420002966A967E95068600498059902000B00B5
:103430000CF098FE32003B000CF0BBFE0CF0BEFF1F
:103440006C630490E8610298039902000B000CF091
:1034500089FE32003B000CF0ACFE0CF0AFFF494699
:103460009423E8646966E967E950C02306980799E0
:10347000049A1B06AA6000220CF09BFE32003B005F
:103480000CF097FE0CF09AFF089B4946AB63802333
:1034900028622C65A966E9501833E9504046149912
:1034A0000DF0C7FE019F1599061C381C0DF0C1FEDA
:1034B0005146041C58460DF0BCFE311C0DF0A2FE16
:1034C000211C06940DF09BFE011C0DF09BFE514645
:1034D0000990E86000980DF0ACFE1499041C381CAB
:1034E0000DF0A7FE011C201C0DF08CFE1599041C8C
:1034F00040460DF09EFE011C201C0DF083FE011CB9
:103500000DF080FE14990290686200980DF091FE13
:103510001599089058460DF08CFE019A8024944627
:1035200024066444071C514620000DF082FE0899D1
:103530000DF068FE391C0DF062FE011C0DF062FEFC
:103540001499E86358460DF074FE1599049000989C
:103550000DF06FFE802212064244041C51461000FA
:103560000DF067FE04990DF04DFE211C0DF04AFE92
:10357000011C0DF047FE4A468423EA666865EA505E
:103580001833EA505146286101980DF052FE08990F
:103590000DF035FE391C0DF035FE011C0DF032FE2C
:1035A000071CA8628020029B00062B6451465844E9
:1035B0000DF03FFE311C0DF022FE06990DF022FEAB
:1035C000011C0DF01FFE8823A86548462867E850B7
:1035D0001833E850514640466F610DF02AFE0499B9
:1035E0000DF00DFE211C0DF00AFE011C0DF00AFE6F
:1035F000099AE8626A64029B4A46EB654B466B6730
:103600008C230020EA501833EA500BB0F0BCBB46C4
:10361000B246A946A046F0BD0123F0B5E3214746D6
:10362000CE469C46294B804605009946284E80B5DB
:103630008900076846444144FA0F6F68D2077B004F
:103640005B08346813435A08624064461C4201D048
:103650004B465A4004C50436A942EDD1E323424605
:103660009B00C626D458194B01259C46F6004644BB
:10367000E20F4C68D20763005B08076813435A08DF
:103680007A401D4201D063465A40043004C1B04222
:10369000EED14246C62140460E4BC900D3581268AF
:1036A000DB0F52005208DB07415813435A084A40C7
:1036B000DB0701D5054B5A404146064BCA50002254
:1036C0000433CA50C0BCB946B046F0BDDFB008995B
:1036D00034060000BC090000F0B54546DE465746FA
:1036E0004E46E0B53C4CD723A54434AA94466344E7
:1036F0001B091B018A6805930B68019237921A68AF
:1037000004902D929A6933912E921A6B38AC2F92B5
:103710009A6C30921A6E06929A6F089290229A587A
:1037200007925A680A92DA690B925A6B0C92DA6C19
:103730000D925A6E0E92DA6F0F9294229A5810924E
:103740009A6811921A6A12929A6B13921A6D1492D5
:103750009A6E159280229A58169298229A58179229
:10376000DA6818925A6A1992DA6B1A925A6D1B9299
:10377000DA6E1C9284229A581D929C229A581E92AC
:103780001A691F929A6A20921A6C21929A6D22925B
:103790001A6F239288229A582492A0229A5825922E
:1037A0005A692692DA6A27925A6C2892DA6D29921F
:1037B0005A6F2A928C229A582B92A4229B582C93AF
:1037C0004B68984638AB3293C4234344099343462D
:1037D000A0461C0002E0C0469CFDFFFFE168A26815
:1037E00089462169236848460391309902920193E2
:1037F0000DF01FFD0399824606980DF01AFD011C7D
:1038000050460DF0FFFC67698246391C08980DF0A0
:1038100010FDA6698346311C07980DF00AFD011CB6
:1038200058460DF0EFFC011C50460DF0EBFC6568AE
:1038300082462E99281C0DF0FCFC2F998346029895
:103840000DF0F7FC011C58460DF0DCFC2D99834669
:1038500001980DF0EEFC011C58460DF0D3FC011C44
:1038600050460DF0CFFC4346494618600D980DF0C8
:10387000E0FC039982460E980DF0DBFC011C5046DB
:103880000DF0C0FC391C82460F980DF0D2FC311CA3
:10389000834610980DF0CDFC011C58460DF0B2FC8B
:1038A000011C50460DF0AEFC291C82460B980DF011
:1038B000C0FC029983460C980DF0BBFC011C5846D5
:1038C0000DF0A0FC019983460A980DF0B2FC011C92
:1038D00058460DF097FC011C50460DF093FC4346F2
:1038E0004946586014980DF0A4FC03998246159837
:1038F0000DF09FFC011C50460DF084FC391C8246E3
:1039000016980DF096FC311C834617980DF091FC2B
:10391000011C58460DF076FC011C50460DF072FC5F
:10392000291C824612980DF084FC02998346139854
:103930000DF07FFC011C58460DF064FC0199834694
:1039400011980DF076FC011C58460DF05BFC011C33
:1039500050460DF057FC4346494698601B980DF0C1
:1039600068FC039982461C980DF063FC011C5046CC
:103970000DF048FC391C82461D980DF05AFC311C94
:1039800083461E980DF055FC011C58460DF03AFC7C
:10399000011C50460DF036FC291C824619980DF08A
:1039A00048FC029983461A980DF043FC011C5846C6
:1039B0000DF028FC0199834618980DF03AFC011C83
:1039C00058460DF01FFC011C50460DF01BFC4346F1
:1039D0004946D86022980DF02CFC03998246239822
:1039E0000DF027FC011C50460DF00CFC391C8246E2
:1039F00024980DF01EFC311C834625980DF019FC0F
:103A0000011C58460DF0FEFB011C50460DF0FAFB60
:103A1000291C824620980DF00CFC029983462198BF
:103A20000DF007FC011C58460DF0ECFB0199834694
:103A30001F980DF0FEFB011C58460DF0E3FB011C26
:103A400050460DF0DFFB43464946186129980DF0BA
:103A5000F0FB039981462A980DF0EBFB011C4846C8
:103A60000DF0D0FB391C81462B980DF0E2FB311C88
:103A7000071C2C980DF0DDFB011C381C0DF0C2FB5F
:103A8000011C48460DF0BEFB291C061C27980DF0B2
:103A9000D0FB0299051C28980DF0CBFB011C281CBB
:103AA0000DF0B0FB0199051C26980DF0C2FB011C1E
:103AB000281C0DF0A7FB011C301C0DF0A3FB434696
:103AC000586118239C46099B1C34E044A34200D053
:103AD00084E6379B1A68629308929A6909921A6B76
:103AE0000A929A6C0B921A6E0C929A6F0D92902217
:103AF0009A580E925A680F92DA6910925A6B119284
:103B0000DA6C12925A6E1392DA6F149294229A58C7
:103B100015929A6816921A6A17929A6B18921A6DF1
:103B200019929A6E1A9280229A581B9298229A5849
:103B30001C92DA681D925A6A1E92DA6B1F925A6DB5
:103B40002092DA6E219284229A5822929C229A58CC
:103B500023921A6924929A6A25921A6C26929A6D77
:103B6000059C27921A6F2034289288229A58A146E1
:103B70002992A0229A582A925A692B92DA6A2C9298
:103B80005A6C2D92DA6D2E925A6F2F928C229A587F
:103B90003092A4229B5831935CAB06933EAB0793C3
:103BA000329B984643464246414640461B689569CB
:103BB0000193069B146B096E926C40CB876F029148
:103BC000101C0B99039206930DF033FB0C9982465F
:103BD00002980DF02EFB011C50460DF013FB0D99C1
:103BE0008246381C0DF025FB0E998346301C0DF0E3
:103BF00020FB011C58460DF005FB011C50460DF042
:103C000001FB09998246281C0DF013FB0A99834693
:103C1000201C0DF00EFB011C58460DF0F3FA08991C
:103C2000834601980DF005FB011C58460DF0EAFA99
:103C3000011C50460DF0E6FA4B46129918600398A5
:103C40000DF0F7FA1399824602980DF0F2FA011C72
:103C500050460DF0D7FA14998246381C0DF0E9FA57
:103C600015998346301C0DF0E4FA011C58460DF0FE
:103C7000C9FA011C50460DF0C5FA10998246281C5D
:103C80000DF0D7FA11998346201C0DF0D2FA011CD1
:103C900058460DF0B7FA0F99834601980DF0C9FA0E
:103CA000011C58460DF0AEFA011C50460DF0AAFA60
:103CB0004B461999586003980DF0BBFA1A99824641
:103CC00002980DF0B6FA011C50460DF09BFA1B99B4
:103CD0008246381C0DF0ADFA1C998346301C0DF05D
:103CE000A8FA011C58460DF08DFA011C50460DF043
:103CF00089FA17998246281C0DF09BFA1899834679
:103D0000201C0DF096FA011C58460DF07BFA16990E
:103D1000834601980DF08DFA011C58460DF072FA99
:103D2000011C50460DF06EFA4B462099986003989E
:103D30000DF07FFA2199824602980DF07AFA011C63
:103D400050460DF05FFA22998246381C0DF071FA48
:103D500023998346301C0DF06CFA011C58460DF077
:103D600051FA011C50460DF04DFA1E998246281C4E
:103D70000DF05FFA1F998346201C0DF05AFA011CC2
:103D800058460DF03FFA1D99834601980DF051FAFF
:103D9000011C58460DF036FA011C50460DF032FA5F
:103DA0004B462799D86003980DF043FA289982462C
:103DB00002980DF03EFA011C50460DF023FA2999A5
:103DC0008246381C0DF035FA2A998346301C0DF0D6
:103DD00030FA011C58460DF015FA011C50460DF042
:103DE00011FA25998246281C0DF023FA269983465C
:103DF000201C0DF01EFA011C58460DF003FA249900
:103E0000834601980DF015FA011C58460DF0FAF999
:103E1000011C50460DF0F6F94B462E991861039897
:103E20000DF007FA2F99824602980DF002FA011C54
:103E300050460DF0E7F930998246381C0DF0F9F93B
:103E40003199071C301C0DF0F4F9011C381C0DF0E1
:103E5000D9F9011C50460DF0D5F92C99061C281CE7
:103E60000DF0E7F92D99051C201C0DF0E2F9011C5D
:103E7000281C0DF0C7F92B99041C01980DF0D9F9F5
:103E8000011C201C0DF0BEF9011C301C0DF0BAF90C
:103E90004B46586104239C461433E0449C46079BE0
:103EA000E144434500D07DE6339B059DDC68296AEB
:103EB00020680DF0A7F9049EA96B306060680DF0D2
:103EC000A1F97060A068296D0DF09CF9B060E06800
:103ED000A96E0DF097F98023F0602069E9589846A3
:103EE0000DF090F998233061E95860690DF08AF976
:103EF0007061A069696A0DF085F9B061E069E96BEC
:103F00000DF080F9F061206A696D0DF07BF9306287
:103F1000E96E606A0DF076F984277062A06AE9594B
:103F20000DF070F99C23B062E958E06A0DF06AF96F
:103F3000F062206BA96A0DF065F93063606B296C43
:103F40000DF060F97063A06BA96D0DF05BF9B063C3
:103F5000E06B296F0DF056F9F0638826206CA959A3
:103F60000DF050F9049B1864A023606CE9580DF023
:103F700049F9049BE96A5864A06C0DF043F9049B6D
:103F8000696C9864E06C0DF03DF9049BE96DD864B0
:103F9000206D0DF037F9049B696F1865606D0DF0A9
:103FA00031F98C25049A059B5065A06D59590DF087
:103FB00029F9A423049A9065059AE06DD1580DF073
:103FC00021F9049B059AD865116B206E0DF01AF942
:103FD000049B059A1866916C606E0DF013F9049BB2
:103FE000059A5866A06E116E0DF00CF9049B059AA7
:103FF0009866E06E916F0DF005F9049B059AD866FE
:104000009023206FD1580DF0FDF8049B059A186796
:10401000A823606FD1580DF0F5F8049B059A5867F6
:10402000A16F506B0DF0EEF8049B059A9867E16F55
:10403000D06C0DF0E7F84146049B059AD8676158AB
:10404000506E0DF0DFF84146049B059A5850E15937
:10405000D06F0DF0D7F8049BD8519423059FA15938
:10406000F8580DF0CFF8049B9851AC236159F858DB
:104070000DF0C8F8049B585199239B009D44F0BC57
:10408000BB46B246A946A046F0BDC046F0B5DE46E6
:1040900057464E4645460400E0B5436887B0580091
:1040A000A3684008590049080DF0ACF8236859008E
:1040B00049080DF0A7F82369051C580063694008FA
:1040C000590049080DF09EF8E368590049080DF0C1
:1040D00099F8011C281C0DF095F8E369051C58009F
:1040E000236A4008590049080DF08CF8A36959006B
:1040F00049080DF087F8A36A061C5800E36A4008D7
:10410000590049080DF07EF8636A590049080DF01E
:1041100079F8011C301C0DF075F8636B071C580012
:10412000A36B4008590049080DF06CF8236B590047
:1041300049080DF067F8236C061C5800636C4008B2
:10414000590049080DF05EF8E36B590049080DF07D
:1041500059F8011C301C0DF055F8061C011C381CC8
:104160000DF09EF8002800D13E1C311C281C0DF0DB
:1041700097F8002800D12E1CE36C5800236D4008EE
:10418000590049080DF03EF8A36C590049080DF09C
:1041900039F8A36D051C5800E36D40085900490823
:1041A0000DF030F8636D590049080DF02BF8011C33
:1041B000281C0DF027F8636E071C5800A36E4008FA
:1041C000590049080DF01EF8236E590049080DF0FA
:1041D00019F8236F051C5800636F400859004908FF
:1041E0000DF010F8E36E590049080DF00BF8011CB2
:1041F000281C0DF007F8E36F804658008023E15833
:104200004008490049080CF0FDFFA36F5900490818
:104210000CF0F8FF8823051CE0580433E1584000F7
:104220004900490840080CF0EDFF8423E15849009B
:1042300049080CF0E7FF011C281C0CF0E3FF051CEB
:10424000011C40460DF02CF8002800D14546291CE1
:10425000381C0DF025F8002800D13D1C291C301C0D
:104260000DF01EF8002800D1351CC0232100E550B8
:1042700001AABA3B02A8A83104930294FCF7EEFA13
:104280000121C422019B98260B405B428B430133E2
:10429000A354343A9246002250469C27225094322E
:1042A000A1509346923AA2510132E2519D32944676
:1042B00060469C3A2250A03291469F3A90464A4628
:1042C00040462300A05048461832A258903392002E
:1042D0009A1815682550404610606046B82220584C
:1042E000A2588046604692009A18156825504046AC
:1042F0001060B422E059A258844692009A181068BF
:104300005D46E05160461060B022A258A759920065
:104310009A181068A0511760AC225846A258265827
:1043200092009A18106860511660A822A25855464B
:1043300092009B1852461868A25860511A60C52313
:10434000E15407B0F0BCBB46B246A946A046F0BD5A
:10435000C023002210B5C25000220433C2520B68A1
:10436000040003604B6843608B688360CB68C36064
:104370000B6903614B6943618B698361CB69C361DD
:104380000B6A03624B6A43628B6A8362CB6AC362C5
:104390000B6B03634B6B43638B6B8363CB6BC363AD
:1043A0000B6C03644B6C43648B6C8364CB6CC36495
:1043B0000B6D03654B6D43658B6D8365CB6DC3657D
:1043C0000B6E03664B6E43668B6E8366CB6EC36665
:1043D0000B6F03674B6F43678B6F8367CB6FC3674D
:1043E0008023CA58C2500433CA58C2500433CA5832
:1043F000C2500433CA58C250FFF748FE200010BD17
:10440000F0B5DE464E4645465746E0B5214C91464E
:10441000A5443AAA94460A0031931F4B3B9063444B
:104420001B091B013A919846D3AB13CA13C313CA95
:1044300013C31268D3A91A60184B194A1B6847A8FE
:104440000493184B47AC1B680193174B1B680593EB
:104450000093049BFEF786FF47ABD3934B46D49360
:1044600047ABD5933AAA8323944686201B01634425
:104470001B68C0004044A2AAD3A9D6930990FFF7B5
:104480002BF96BAB089343460A934B463094A146F5
:104490001C000BE014F7FFFF470300000822032075
:1044A0000AE81C4100220320042203204B464E460A
:1044B0001B68B76F0793089B494640CB48464A465E
:1044C0000893A823896C006E9569126B059106907C
:1044D000E158301C04920CF0ACFE8C238246E1586B
:1044E000381C0CF0A6FE011C50460CF08BFE216F10
:1044F000824606980CF09DFE616D834605980CF08F
:1045000098FE011C58460CF07DFE011C50460CF034
:1045100079FEA16B824604980CF08BFEE16983461C
:10452000281C0CF086FE011C58460CF06BFE21681E
:10453000834607980CF07DFE011C58460CF062FE85
:10454000011C50460CF05EFE43461860AC23301C44
:10455000E1580CF06EFE90238246E158381C0CF0B6
:1045600068FE011C50460CF04DFE616F82460698B5
:104570000CF05FFEA16D834605980CF05AFE011CFD
:1045800058460CF03FFE011C50460CF03BFEE16B20
:10459000824604980CF04DFE216A8346281C0CF0DC
:1045A00048FE011C58460CF02DFE616883460798B2
:1045B0000CF03FFE011C58460CF024FE011C504636
:1045C0000CF020FE43465860B023301CE1580CF03C
:1045D00030FE94238246E158381C0CF02AFE011C60
:1045E00050460CF00FFEA16F824606980CF021FE9B
:1045F000E16D834605980CF01CFE011C58460CF03A
:1046000001FE011C50460CF0FDFD216C8246049811
:104610000CF00FFE616A8346281C0CF00AFE011C98
:1046200058460CF0EFFDA168834607980CF001FE98
:10463000011C58460CF0E6FD011C50460CF0E2FD52
:1046400043469860B423301CE1580CF0F2FD9823E7
:104650008246E158381C0CF0ECFD011C50460CF071
:10466000D1FDE16F824606980CF0E3FD216E834692
:1046700005980CF0DEFD011C58460CF0C3FD011C32
:1046800050460CF0BFFD616C824604980CF0D1FDE1
:10469000A16A8346281C0CF0CCFD011C58460CF086
:1046A000B1FDE168834607980CF0C3FD011C584634
:1046B0000CF0A8FD011C50460CF0A4FD4346D86048
:1046C000B823301CE1580CF0B4FD9C238246E1581D
:1046D000381C0CF0AEFD011C50460CF093FD8023FD
:1046E0008246E15806980CF0A4FD616E8346059859
:1046F0000CF09FFD011C58460CF084FD011C504637
:104700000CF080FDA16C824604980CF092FDE16AE9
:104710008346281C0CF08DFD011C58460CF072FDE0
:104720002169834607980CF084FD011C58460CF063
:1047300069FD011C50460CF065FD43461861BC2321
:10474000301CE1580CF075FDA0238246E158381C5E
:104750000CF06FFD011C50460CF054FD8423824682
:10476000E15806980CF065FDA16E834605980CF0A3
:1047700060FD011C58460CF045FD011C50460CF034
:1047800041FDE16C824604980CF053FD216B834699
:10479000281C0CF04EFD011C58460CF033FD6169DD
:1047A000834607980CF045FD011C58460CF02AFD85
:1047B000011C50460CF026FD4346E16E58610598F9
:1047C0000CF037FD88238246E15806980CF031FD45
:1047D000011C50460CF016FDA4238246E158381CFB
:1047E0000CF027FDC023071CE158301C0CF021FD04
:1047F000011C381C0CF006FD011C50460CF002FD9B
:10480000616B061C281C0CF014FD216D051C04981E
:104810000CF00FFD011C281C0CF0F4FCA169051C18
:1048200007980CF006FD011C281C0CF0EBFC011C89
:10483000301C0CF0E7FC4346986104239C46183377
:10484000E1449C464DABE044994500D02EE60A9BDE
:10485000A146D8249846A427A4004444BF00474456
:1048600020000999FFF774FD210090223800C82428
:104870000CF06EFFFC21A40044448900414418223E
:1048800020000CF065FFCE2081218000C90041444A
:10489000182240440CF05CFF8422D423D20042440E
:1048A00012689B0043441A60D523874A4546424418
:1048B00012889B004344FE211A8000232268B035F1
:1048C0009200AA18890511609361136393641366BB
:1048D0009367C92292004244126844469200AA1883
:1048E000136091611363936413669367CA22920005
:1048F0004244126806269200AA181360936111635D
:10490000936413669367CB22920042441268062098
:104910009200AA18136093611363916413669367FE
:10492000CC229200424412689200AA18136093614C
:104930001363936411669367CD2292004244126818
:104940009200AA1813609361136393641366A823FB
:104950005B009B46916742465946E4182033434426
:10496000A660E660266153508022920042444B3993
:104970006260924604933A0006230294FF3901963E
:104980000095FCF7D9FB42465946049BA660E660B9
:104990002661535053464B3963603A000623029414
:1049A000062001960095FF39FCF7CAFE43461B68B6
:1049B0008C2206934346DB69D3AC079343469B6B3B
:1049C000089343465B6D099343461B6F0A93434626
:1049D0009B5804320B9343465B680C9343461B6A17
:1049E0000D934346DB6B0E9343469B6D0F934346FB
:1049F0005B6F109343469B580432119343469B6868
:104A0000129343465B6A139343461B6C14934346CD
:104A1000DB6D159343469B6F169343469B580432B8
:104A200017934346DB68189343469B6A19934346A2
:104A30005B6C1A9343461B6E1B934346DB6F1C93C0
:104A400043469B58183A1D9343461B691E934346A1
:104A5000DB6A1F9343469B6C209343465B6E219316
:104A600043469B581C32229343469B58183A239343
:104A700043465B69249343461B6B25934346DB6C9B
:104A8000269343469B6E279343469B581C3228939C
:104A900043469B58183A299343469B692A934346B9
:104AA0005B6B2B9343461B6D2C934346DB6E2D9320
:104AB00043469B581C322E9343469B58A8462F933F
:104AC0004B46329302E0C0462404000043461F6870
:104AD0005B6842469946434641469B68D2680E69E8
:104AE0004D6907984946049305920CF0A2FB04997E
:104AF000824608980CF09DFB011C50460CF082FB8E
:104B0000391C824606980CF094FB011C50460CF0B0
:104B100079FB311C82460A980CF08BFB291C8346DA
:104B20000B980CF086FB011C58460CF06BFB0599AA
:104B3000834609980CF07DFB011C58460CF062FB83
:104B4000011C50460CF05EFB494620600D980CF0AD
:104B500070FB049982460E980CF06BFB011C5046CA
:104B60000CF050FB391C82460C980CF062FB011CC7
:104B700050460CF047FB311C824610980CF059FB54
:104B8000291C834611980CF054FB011C58460CF06C
:104B900039FB059983460F980CF04BFB011C5846D6
:104BA0000CF030FB011C50460CF02CFB49466060B9
:104BB00013980CF03EFB0499824614980CF039FBD4
:104BC000011C50460CF01EFB391C824612980CF05A
:104BD00030FB011C50460CF015FB311C8246169828
:104BE0000CF027FB291C834617980CF022FB011CB4
:104BF00058460CF007FB0599834615980CF019FBF5
:104C0000011C58460CF0FEFA011C50460CF0FAFA52
:104C10004946A06019980CF00CFB049982461A983A
:104C20000CF007FB011C50460CF0ECFA391C8246D4
:104C300018980CF0FEFA011C50460CF0E3FA311CF7
:104C400082461C980CF0F5FA291C83461D980CF03E
:104C5000F0FA011C58460CF0D5FA059983461B98CA
:104C60000CF0E7FA011C58460CF0CCFA011C504637
:104C70000CF0C8FA4946E0601F980CF0DAFA049983
:104C8000824620980CF0D5FA011C50460CF0BAFA76
:104C9000391C82461E980CF0CCFA011C50460CF0D0
:104CA000B1FA311C824622980CF0C3FA291C8346C3
:104CB00023980CF0BEFA011C58460CF0A3FA059993
:104CC000834621980CF0B5FA011C58460CF09AFA6C
:104CD000011C50460CF096FA4946206125980CF0CC
:104CE000A8FA0499824626980CF0A3FA011C5046B3
:104CF0000CF088FA391C824624980CF09AFA011CB0
:104D000050460CF07FFA311C824628980CF091FA3C
:104D1000291C834629980CF08CFA011C58460CF08B
:104D200071FA0599834627980CF083FA011C5846BE
:104D30000CF068FA011C50460CF064FA49466061B8
:104D40002B980CF076FA049981462C980CF071FAA5
:104D5000011C48460CF056FA391C81462A980CF082
:104D600068FA011C48460CF04DFA311C071C2E98BD
:104D70000CF05FFA291C061C2F980CF05AFA011C43
:104D8000301C0CF03FFA0599051C2D980CF051FAD7
:104D9000011C281C0CF036FA011C381C0CF032FAED
:104DA00018239C46A061FDAB1C34E044A34200D014
:104DB0008CE6329BD49A9946D39BD599D69CD79DA5
:104DC000D89ED99F06930792DA9BDB9A08910994A3
:104DD000DC99DD9C0A950B96DE9DDF9E0C970D936A
:104DE000E09FE19B0E92E29A0F911094119512961A
:104DF000139714931592E399E49CE59DE69EE79F33
:104E0000E89BE99A16911794EA99EB9C18951996E4
:104E1000EC9DED9E1A971B93EE9FEF9B1C921D91AC
:104E2000F09AF1991E94F29C209621972293239256
:104E3000249125941F95F39DF49EF59FF79AF69B78
:104E4000F899F99C26952796FA9DFB9E2897FC9F3A
:104E50002A923A9A29932B912C942D952E962F973E
:104E6000D3AB32CA32C332CA32C31168D3AC196071
:104E7000FD49FE4B09681B680191FD49FD4A09681F
:104E80002000009141A9FDF7CDFF319F419938687D
:104E90000CF0B5F94299834678680CF0B0F9439963
:104EA0008246B8680CF0ABF94499041CF8680CF021
:104EB000A6F94599051C38690CF0A1F94699061C1C
:104EC00078690CF09CF9071C011C2A980CF0B1F9C8
:104ED000311C804623980CF0ACF9011C40460CF0C4
:104EE00091F9291C80461C980CF0A3F9011C40463E
:104EF0000CF088F9211C804615980CF09AF951465F
:104F000004900E980CF095F9011C04980CF07AF9B5
:104F10005946049007980CF08CF9011C04980CF089
:104F200071F9011C40460CF06DF93A9A51680CF089
:104F300069F9391C04902B980CF07BF9311C8046E0
:104F400024980CF076F9011C40460CF05BF9291C02
:104F500080461D980CF06DF9011C40460CF052F98A
:104F6000211C804616980CF064F9514605900F9864
:104F70000CF05FF9011C05980CF044F959460590B6
:104F800008980CF056F9011C05980CF03BF9011C2F
:104F900040460CF037F93A9A91680CF033F9391C15
:104FA00005902C980CF045F9311C804625980CF0A2
:104FB00040F9011C40460CF025F9291C80461E983A
:104FC0000CF037F9011C40460CF01CF9211C8046FE
:104FD00017980CF02EF95146319010980CF029F9E1
:104FE000011C31980CF00EF95946319009980CF0DB
:104FF00020F9011C31980CF005F9011C40460CF019
:1050000001F93A9AD1680CF0FDF8391C31902D98CD
:105010000CF00FF9311C804626980CF00AF9011C9F
:1050200040460CF0EFF8291C80461F980CF001F95F
:10503000011C40460CF0E6F8211C804618980CF044
:10504000F8F85146329011980CF0F3F8011C3298A0
:105050000CF0D8F8594632900A980CF0EAF8011C86
:1050600032980CF0CFF8011C40460CF0CBF83A9A7D
:1050700011690CF0C7F8391C32902E980CF0D9F851
:10508000311C804627980CF0D4F8011C40460CF0E7
:10509000B9F8291C804620980CF0CBF8011C40463A
:1050A0000CF0B0F8211C804619980CF0C2F851465B
:1050B000339012980CF0BDF8011C33980CF0A2F854
:1050C000594633900B980CF0B4F8011C33980CF04F
:1050D00099F8011C40460CF095F83A9A51690CF089
:1050E00091F85146339013980CF0A3F8211C804698
:1050F0001A980CF09EF8011C40460CF083F85946B3
:1051000080460C980CF095F8011C40460CF07AF89B
:10511000311C804628980CF08CF8391C34902F985C
:105120000CF087F8011C34980CF06CF8291C3490B2
:1051300021980CF07EF8011C34980CF063F8011CE7
:1051400040460CF05FF83A9A91690CF05BF8391C14
:10515000804629980CF06DF8311C071C22980CF041
:1051600068F8011C381C0CF04DF8291C061C1B9813
:105170000CF05FF8011C301C0CF044F8211C051CDD
:1051800014980CF056F85146041C0D980CF051F888
:10519000011C201C0CF036F85946041C06980CF033
:1051A00048F8011C201C0CF02DF8011C281C0CF0E8
:1051B00029F83A9AD3AC11680CF024F83B9B049A76
:1051C00018605A60059A9A60319ADA60329A1A61C8
:1051D000339A5A6142469A614B461B684A46A293EB
:1051E0004B465B68A3934B469B68A4934B46DB6896
:1051F000A5934B461B69A6934B465B69A7934B4609
:105200009B69A8934B46DB69A9934B461B6AAA93FB
:105210004B465B6AAB934B469B6AAC934B46DB6A4F
:10522000AD934B461B6BAE934B465B6BAF934B46BC
:105230009B6BB0934B46DB6BB1934B461B6CB293AD
:105240004B465B6CB3934B469B6CB4934B46DB6C09
:10525000B5934B461B6DB6934B465B6DB7934B4670
:105260009B6DB8934B4607E00022032008220320E1
:10527000042203200AE81C41DB6DB9934B461B6EE8
:10528000BA934B465B6EBB934B469B6EBC934B46AF
:10529000DB6EBD934B461B6FBE934B465B6FBF935C
:1052A0004B469B6FC0934B46DB6FC1938023D35813
:1052B000C2938423D358C3938823D358C4938C2395
:1052C000D358C5939023D358C6939423D358C793E8
:1052D0009823D358C8939C23D358C993A023D35859
:1052E000CA93A423D358CB93A823D358CC93AC23ED
:1052F000D358CD93B023D358CE93B423D358CF9360
:10530000B823D358D093BC23D358D193C023D358B8
:10531000D293309B3092984643461F685B68424662
:105320009946434641469B68D2680E694D690D987F
:105330004946049305920BF07CFF04998246149829
:105340000BF077FF011C50460BF05CFF391C8246C6
:1053500006980BF06EFF011C50460BF053FF311CFA
:10536000824622980BF065FF291C834629980BF092
:1053700060FF011C58460BF045FF059983461B98BA
:105380000BF057FF011C58460BF03CFF011C504628
:105390000BF038FF494620600E980BF04AFF049945
:1053A000824615980BF045FF011C50460BF02AFF72
:1053B000391C824607980BF03CFF011C50460BF04D
:1053C00021FF311C824623980BF033FF291C8346B2
:1053D0002A980BF02EFF011C58460BF013FF05997D
:1053E00083461C980BF025FF011C58460BF00AFF62
:1053F000011C50460BF006FF494660600F980BF009
:1054000018FF0499824616980BF013FF011C5046B2
:105410000BF0F8FE391C824608980BF00AFF011CBD
:1054200050460BF0EFFE311C824624980BF001FF32
:10543000291C83462B980BF0FCFE011C58460BF0F0
:10544000E1FE059983461D980BF0F3FE011C5846BA
:105450000BF0D8FE011C50460BF0D4FE4946A0606C
:1054600010980BF0E6FE0499824617980BF0E1FEC7
:10547000011C50460BF0C6FE391C824609980BF001
:10548000D8FE011C50460BF0BDFE311C824625980B
:105490000BF0CFFE291C83462C980BF0CAFE011C92
:1054A00058460BF0AFFE059983461E980BF0C1FEDF
:1054B000011C58460BF0A6FE011C50460BF0A2FE44
:1054C0004946E06011980BF0B4FE049982461898A2
:1054D0000BF0AFFE011C50460BF094FE391C8246C7
:1054E0000A980BF0A6FE011C50460BF08BFE311CF7
:1054F000824626980BF09DFE291C83462D980BF0C2
:1055000098FE011C58460BF07DFE059983461F98B6
:105510000BF08FFE011C58460BF074FE011C504628
:105520000BF070FE4946206112980BF082FE049940
:10553000824619980BF07DFE011C50460BF062FE6E
:10554000391C82460B980BF074FE011C50460BF080
:1055500059FE311C824627980BF06BFE291C8346AE
:105560002E980BF066FE011C58460BF04BFE059979
:10557000834620980BF05DFE011C58460BF042FE5E
:10558000011C50460BF03EFE4946606113980BF03B
:1055900050FE049981461A980BF04BFE011C4846B8
:1055A0000BF030FE391C81460C980BF042FE011CBA
:1055B00048460BF027FE311C071C28980BF039FEDB
:1055C000291C061C2F980BF034FE011C301C0BF01C
:1055D00019FE0599051C21980BF02BFE011C281CB7
:1055E0000BF010FE011C381C0BF00CFE18239C461F
:1055F000FFABA06114331C34E044A34200D08BE61F
:10560000309BA2AD99463C93C4234C46C8464B44BC
:10561000089307944246D268434641469146424623
:105620009E694C68096892685F691B690491301C27
:10563000FD99069305920BF0FCFDF6998246381C05
:105640000BF0F7FD011C50460BF0DCFDEF99824694
:1056500006980BF0EEFDE899834648460BF0E9FD0D
:10566000011C58460BF0CEFD011C50460BF0CAFD44
:10567000E199824605980BF0DCFDDA998346201CFF
:105680000BF0D7FD011C58460BF0BCFDD3998346A7
:1056900004980BF0CEFD011C58460BF0B3FD011C25
:1056A00050460BF0AFFD011C28680BF0A8FD2860E8
:1056B000FE99301C0BF0BDFDF7998246381C0BF0AB
:1056C000B8FD011C50460BF09DFDF09982460698EE
:1056D0000BF0AFFDE999834648460BF0AAFD011C8B
:1056E00058460BF08FFD011C50460BF08BFDE299E4
:1056F000824605980BF09DFDDB998346201C0BF03C
:1057000098FD011C58460BF07DFDD4998346049802
:105710000BF08FFD011C58460BF074FD011C504628
:105720000BF070FD011C68680BF069FDFF99686063
:10573000301C0BF07EFDF8998246381C0BF079FD89
:10574000011C50460BF05EFDF199824606980BF065
:1057500070FDEA99834648460BF06BFD011C5846E4
:105760000BF050FD011C50460BF04CFDE3998246B6
:1057700005980BF05EFDDC998346201C0BF059FD6B
:10578000011C58460BF03EFDD599834604980BF05A
:1057900050FD011C58460BF035FD011C50460BF026
:1057A00031FD011CA8680BF02AFDFFAB5968A86009
:1057B000301C04330BF03DFDF9998246381C0BF088
:1057C00038FD011C50460BF01DFDF29982460698EB
:1057D0000BF02FFDEB99834648460BF02AFD011C88
:1057E00058460BF00FFD011C50460BF00BFDE499E1
:1057F000824605980BF01DFDDD998346201C0BF0B9
:1058000018FD011C58460BF0FDFCD6998346049800
:105810000BF00FFD011C58460BF0F4FC011C504628
:105820000BF0F0FC011CE8680BF0E9FCFFAB996899
:10583000E860301C08330BF0FCFCFA998246381CF7
:105840000BF0F7FC011C50460BF0DCFCF399824690
:1058500006980BF0EEFCEC99834648460BF0E9FC09
:10586000011C58460BF0CEFC011C50460BF0CAFC44
:10587000E599824605980BF0DCFCDE998346201CF6
:105880000BF0D7FC011C58460BF0BCFCD7998346A3
:1058900004980BF0CEFC011C58460BF0B3FC011C25
:1058A00050460BF0AFFC011C28690BF0A8FCFFABC5
:1058B000D9682861301C0C330BF0BBFCFB99824685
:1058C000381C0BF0B6FC011C50460BF09BFCF49905
:1058D000824606980BF0ADFCED99834648460BF0E6
:1058E000A8FC011C58460BF08DFC011C50460BF027
:1058F00089FCE699824605980BF09BFCDF9983466C
:10590000201C0BF096FC011C58460BF07BFCD89930
:10591000834604980BF08DFC011C58460BF072FC7A
:10592000011C50460BF06EFC011C68690BF067FC13
:10593000EE99686148460BF07CFCF5998146069823
:105940000BF077FC011C48460BF05CFCFC9981468F
:10595000381C0BF06EFCFFAB1969071C301C1033B0
:105960000BF067FC011C381C0BF04CFC011C48467A
:105970000BF048FCE099061C201C0BF05AFCE79940
:10598000041C05980BF055FC011C201C0BF03AFC84
:10599000D999041C04980BF04CFC011C201C0BF042
:1059A00031FC011C301C0BF02DFC011CA8690BF014
:1059B00026FC1C239C46089BE044A8611C359845A6
:1059C00000D027E6079BA29A99461A60A39A5A60CC
:1059D000A49A9A60A59ADA60A69A1A61A79A5A615F
:1059E000A89A9A61A99ADA61AA9A1A62AB9A5A623B
:1059F000AC9A9A62AD9ADA62AE9A1A63AF9A5A6317
:105A0000B09A9A63B19ADA63B29A1A64B39A5A64F2
:105A1000B49A9A64B59ADA64B69A1A65B79A5A65CE
:105A2000B89A9A65B99ADA65BA9A1A66BB9A5A66AA
:105A3000BC9A9A66BD9ADA66BE9A1A67BF9A5A6786
:105A4000C09A9A67C19ADA674A468023C299D150B0
:105A5000C3990433D150C4990433D150C599043348
:105A6000D150C6990433D150C7990433D150C89945
:105A70000433D150C9990433D150CA990433D15059
:105A8000CB990433D150CC990433D150CD99043300
:105A9000D150CE990433D150CF990433D150D099FD
:105AA0000433D150D1990433D150D2990433D15019
:105AB0003AAA9446504BA2AA63441B6813CB13C264
:105AC0004E4BD3AC63441B6807CB07C43A9B3B9D4A
:105AD00000934B4B28006344A2A91B68D3AAFDF78F
